S00C000072766D6F6E2E6D6F7443
S3150000000097610000938101C017010100130181FF70
S31500000010970200009382021F739052301385C184A9
S3150000002017F6000013064626098E8145EF2070223A
S3150000003002454C000146312CEF1080569302D00544
S315000000407300000001A00100000000000000000095
S31500000050000000000000000000000000000000009A
S31500000060000000000000000000000000000000008A
S31500000070000000000000000000000000000000007A
S31500000080000000000000000000000000000000006A
S31500000090000000000000000000000000000000005A
S315000000A0000000000000000000000000000000004A
S315000000B0000000000000000000000000000000003A
S315000000C0000000000000000000000000000000002A
S315000000D0000000000000000000000000000000001A
S315000000E0000000000000000000000000000000000A
S315000000F000000000000000000000000000000000FA
S3150000010000000000000000000000000000000000E9
S3150000011000000000000000000000000000000000D9
S3150000012000000000000000000000000000000000C9
S3150000013000000000000000000000000000000000B9
S3150000014000000000000000000000000000000000A9
S315000001500000000000000000000000000000000099
S315000001600000000000000000000000000000000089
S315000001700000000000000000000000000000000079
S315000001800000000000000000000000000000000069
S315000001900000000000000000000000000000000059
S315000001A00000000000000000000000000000000049
S315000001B00000000000000000000000000000000039
S315000001C00000000000000000000000000000000029
S315000001D00000000000000000000000000000000019
S315000001E00000000000000000000000000000000009
S315000001F000000000000000000000000000000000F9
S31500000200797106C02AC22EC432C636C83ACA3ECC56
S3150000021022CE26D016D21AD41ED60A85F32520342D
S3150000022073261034EF10803D82401245A2453246B7
S31500000230C2465247E2477244825492522253B25304
S31500000240456173002030000000000000000000003F
S3150000025000008327000F797106D622D426D299E7AB
S31500000260B7E7F505938707102328F00E0325000F3F
S31500000270EF40C04C2A8403A50181A28523A2818474
S31500000280EF30903183A54181AA8722853EC6EF30A3
S31500000290B03083A5818102C40144EF30207EEF4057
S315000002A08038EF10004583A5C18103A54184EF3056
S315000002B07062EF404037EF10002981471305207622
S315000002C0EF10603F0545EF10C023C17703A6C73185
S315000002D083A5018203A5418432C0EF30B05F024698
S315000002E0AA8515651305C59FEF20E0030545EF10A8
S315000002F00023056513056541EF20201083A7418281
S315000003003EC89387C18B3ECA9387018C3ECC8147FA
S3150000031013052076EF10203A8567138527ABEF107B
S31500000320403A9567138507A2EF202024AA84294521
S31500000330EF10100E9567938587A22685EF20C004DF
S315000003400347050093074006AA846396E70283479E
S31500000350150095E39567938587A20145EF20C002B6
S3150000036011C541468145EF2050492A8422858145A1
S31500000370C1212A8469BF83C704009306400663909F
S31500000380F60483C6140013067007631AD60283C6E2
S31500000390240095E69567938587A20145EF10D07EE8
S315000003A011C541468145EF2050452A84EF10E020D3
S315000003B085452285B5292A84EF10601F89BF9306DB
S315000003C0D0066395F60683C7140093067007639FED
S315000003D0F60483C62400B307D0403EC0A1EA956761
S315000003E0938587A20145EF10307A824719C54146A9
S315000003F08145EF20904082472A843EC095679385C9
S3150000040087A20145EF10507882474146630C0516D6
S315000004108145EF20903E82472A866345A016956760
S31500000420A2851385C7A2EF101070D5B59307600695
S315000004306393E70483C714003306F0408DEFC1775A
S3150000044041572380E71822C0C174328431A0EF10CF
S31500000450E0330504631F051283C70418E207E1872A
S31500000460E3C707FE228602449567B285138587A5F2
S31500000470EF10706B69BD930730066390E70283C780
S31500000480140081EFC1773D472380E71895678145C2
S31500000490138547A6EF1030699DBD93072006639A22
S315000004A0E70483C71400B1E7C17483A54430956798
S315000004B0138507A7EF10306783A5843095671385EA
S315000004C0C7A7EF10506683A5C4309567138587A824
S315000004D0EF10706583A504319567138547A9EF1062
S315000004E0906483A544319567138507AAEF10B0631E
S315000004F039BD9307D006639AE70483C71400B1E7B2
S315000005009567938587A20145EF10106801C941469A
S315000005108145EF20902EC17723A0A732956793855A
S3150000052087A20145EF10506601C941468145EF207B
S31500000530D02CC17723A2A732C17783A5073295674E
S315000005401385C7AAEF10305ED9B39567A6851385C4
S3150000055087AB3AC0EF20605A024745C593070007AC
S31500000560639BE70483C71400B9E7A24703A6C7FF46
S315000005709384C7FF9567A685138547ADEF10B05ADC
S3150000058026C471B322871CC385071107E3CDC7FEB6
S3150000059079B522C20244EF10407AC17783C50718A5
S315000005A0124695671385C79C93F5F50F32C0EF1079
S315000005B09057024655BD930770076395E70683C7B4
S315000005C01400ADE39567938587A20145EF10D05BD4
S315000005D009CD834605001307000441468145638C17
S315000005E0E614EF209021A24788C3A244956713859D
S315000005F047AD9040A685EF101053938744003EC444
S3150000060039B39567938587A2EF10105805C9EF2077
S315000006104030AA8523ACA1849567138507ACEF10FB
S315000006209050F5B193072007639DE70083C7140038
S3150000063089EB23A8018423AA0184D1B983A58185E6
S31500000640E1BF93075006639AE70C03C71400B3078C
S31500000650E0406314070C03A7C18563420710D24626
S3150000066062460A0736833A96814436871443110751
S31500000670B694E31DE6FE26853ED01AC0EF40000C78
S315000006808257024322CE26D02AC23E849A848840CC
S315000006909104EF40A00AB2452AC0EF30B0230247CA
S315000006A0C245AA863A8536C0EF30D0229245EF3051
S315000006B0A06E824695672A86A285138507AEEF103F
S315000006C0904603A7C1850504E35387FC7244825410
S315000006D003A50185EF30307BB245EF30B01FAA8607
S315000006E003A5418536C0EF30107AB245EF30901E33
S315000006F0AA872685BE84EF406004B245EF30901D80
S315000007008246AA8515652686130585AFEF10B0418A
S3150000071023A8018423AA0184DDBE9567A6851385D7
S31500000720C7B2EF20803DE31405BE9567138507B376
S31500000730EF100051E9BE0505EF20300C1567AA87BA
S31500000740930587A20145BE843EC4EF10F043E30E35
S3150000075005E841468145EF20500A88C079B58144B5
S3150000076085BF83A74186930640068507B3F7D70260
S3150000077023A2F18683A741868DE703A7018601455B
S31500000780050723A0E18603A70186058B09CB83A76E
S315000007900186A9461547B3F7D7026375F7006F00C0
S315000007A0105882806F00F055511122C226C006C42F
S315000007B0C17741572380E7188144417429A0EF008F
S315000007C0F07C850409ED83470418E207E187E3C856
S315000007D007FEA24012442685824431018280EF1032
S315000007E0C055C17783C507181565268693F5F50F9D
S315000007F01305C59CEF103033A2401244268582446F
S3150000080031018280C1773D472380E7180145828008
S31500000810511106C4EF00505803A7C184A24023A675
S31500000820A184198D31018280414681456F20E07C8B
S315000008301111130705019307051106CC22CA26C814
S315000008402AC62EC43AC03EC28247138407FF956764
S315000008501385479EA285EF10102DA247A1C395646C
S315000008600C401385C49E1104EF10F02B8247E31948
S31500000870F4FE82472945C1073E843EC0EF10403949
S315000008801247E313E4FC2945EF108038B247E240F3
S315000008905244C2441385071071018280A28483C525
S315000008A0040095671385479FEF10F027824785045C
S315000008B0E397F4FE9304E0050345040005041307DB
S315000008C005FE1377F70F63F4E4001305E002EF105B
S315000008D020348247E312F4FE69BF6358B0008147B3
S315000008E01CC185071105E39DF5FE82802111C177A4
S315000008F022C806CA03A4C73126C6EF00F04923A6BC
S31500000900A1848327401123AEF18489E723A80184BB
S3150000091023AA018403270010C1771303F4FF23A23F
S31500000920E7300327401023A4E7300327801023A6CF
S31500000930E7300327C01023A8E7300327001123AAB6
S31500000940E730832380118327C0123EC0832700131C
S315000009503EC283274013832280130325C0133EC45F
S31500000960B382A20216933343830223226014639454
S31500000970030023280014C174930700129385042EE4
S315000009801306001794433387B700910714C3E39BFC
S31500000990C7FE8247124723A85444B386E7026395ED
S315000009A00300A247B386F602B3876200FD174177BC
S315000009B0232AD744B3C76702232CF744BD47230035
S315000009C0F71863578002B7C7FF3F938787113E9496
S315000009D00A04130707468146B3C7A602110733E682
S315000009E0A602C2079A96D18F232EF7FEE316E4FEDF
S315000009F0D2404244C1771307102023A0E730B24407
S31500000A0061018280511106C422C226C04177930635
S31500000A1000048347071893F7F70FE39CD7FE83A6D6
S31500000A20C18583A781856395F60085472322F73222
S31500000A30C17741572380E71823800718417793062B
S31500000A4000048347071893F7F70FE39CD7FE0325A7
S31500000A50074083A6418583A70185AA9623AAD18448
S31500000A600327474083A4C185BA9723A8F184EF00E2
S31500000A70B03283A6C1848A049387C18B03A7C1853C
S31500000A80A697B306D54094C323A6A1849307E0078F
S31500000A9063D4E7001307E007050723AEE184A2400D
S31500000AA01244C17723A20732232E0010824431015B
S31500000AB08280511122C241748327043006C493F701
S31500000AC0071089EB83274008858B81EFA2401244EB
S31500000AD031018280053F2320043083274008858B1F
S31500000AE0F5D72935A240124423220008310182801D
S31500000AF003A7C182130101D923248126014423229D
S31500000B0091263AC2232611262AC49384C1AB228792
S31500000B10B1A8C8443AC0EF30E04C02479386C1AB57
S31500000B2093175700B697635DA00283A3440083A280
S31500000B30840003A3C4008848CC48904CD44C23A01E
S31500000B40877823A2777823A4577823A6677823A8E3
S31500000B50A77823AAB77823ACC77823AED77805073A
S31500000B60938404029387C123638EF40080409245E8
S31500000B70E35104FA931757001387C1ABBA977D5711
S31500000B8023A0E778A247638D07701384C123996772
S31500000B909387C76B02C182DE0146BEC81305C00338
S31500000BA029A0232CD7E0630DA6021C44C6440C40A2
S31500000BB013F3170013172300DC143E97832687E1EF
S31500000BC093174300B38767408A07B6978A07A697A5
S31500000BD023A0C7F01304040285060506E3D305FC2B
S31500000BE083A78183F81839663EDE83A7C183BACE10
S31500000BF082D4BEC01387018793870187BED6930729
S31500000C00C6DBBED8BEC699679387C75BBED09D6755
S31500000C109387C7D3BADC82D2BEDAF6479C43635EBB
S31500000C20F0183657A65616561843B6978A07BACA04
S31500000C303697D6561607B296B6C499669386C65B9D
S31500000C40B697BECCB9679387C7DBBA973EDC8657A3
S31500000C50BEC296471387C1AB9C439607BA9703A7B4
S31500000C60077903C5C7793ACA03A7477983A787795E
S31500000C703ACC3ECEEF30902CD6472AD06355F012B0
S31500000C8083A701833EDA83A741833ED283A781816E
S31500000C903ED6A6473EC4B6473EC002449307000070
S31500000CA03EC20C480844EF20705DAA855245EF30DD
S31500000CB000654C48AA844844370400801344F4FF76
S31500000CC0EF20D05BAA856245E18CEF304063024796
S31500000CD0AA87F245084F7D8CEF30000C0247AA87A1
S31500000CE03EC60345C701EF30101AAA850255EF30FC
S31500000CF00061EF3050139357F5413D8D1D8D311531
S31500000D00EF307018930500002AC8EF30A02DC247B7
S31500000D102A87D2553E856355E000EF30A03B2AC2B4
S31500000D20A2852685EF2090559255AA872685BE84F2
S31500000D30EF30402B82472A87F255938707023EC041
S31500000D4083A7818222856349E000EF30A0293325FD
S31500000D50A000EF305013AA87BE852685EF201052DB
S31500000D60B244B2552A842685EF30402F2A8786451D
S31500000D7083A78182268563490700EF30A0263325A5
S31500000D80A000EF305010AA87BE852285EF20104FB5
S31500000D909245EF20B04EA247625788C391073EC4E2
S31500000DA08247E39CE7EE264796471307070FBAC428
S31500000DB066479107BEC2E39EE7E8F6461657916777
S31500000DC09106B6CE8656938707843E979386060F7E
S31500000DD0B6D0B6469D67BAD293860678B6C6A656EC
S31500000DE0938707089386C603B6D4B6569106B6D639
S31500000DF0E315F7E2B9679387C7DB3EDC9387818605
S31500000E00BECA9D679387C79702DE02DABEC4D25771
S31500000E10725693962700E65793144600B6C6338754
S31500000E20D700B387C4403ACC044313974700FC1855
S31500000E30B6979C439316260056563EC4A64732974D
S31500000E40B6C2B6973AC83ECE3ACA63559050139486
S31500000E50240022869305F00F4801EF10903F22866A
S31500000E608145C81AEF10F03EC24726D2A2973ED05F
S31500000E70DC1A3EC64244A24705470C4085446359E6
S31500000E80F702A687A2843E8483A6040F2EC093840D
S31500000E90040F368536C2EF30601C82456356050066
S31500000EA0B247924680C3B685A2470504E31EF4FC0A
S31500000EB03247C24711073AC6025791073EC8E39B1D
S31500000EC0E7FA925413034117014493162400D81AE3
S31500000ED0814736C82286A6863A84BE846307960072
S31500000EE0832503001C40638AF53685041104E397C5
S31500000EF0D4FE13041600B6841103E318D4FCA247EB
S31500000F0063CB0700A24772459305F00F13861700BF
S31500000F100A06EF101034956703A7074083A74740DA
S31500000F2001443AD23ED4956703A7874083A7C740BA
S31500000F3026C23AD662573ED8DC1A93030701370712
S31500000F4000801347F7FF3AD09E84228711A82320FA
S31500000F50E300924605079107938404026357D70678
S31500000F608043F2461313240036931AC0E34304FE6B
S31500000F703EC8884082573AC67D8DEF30D00512565E
S31500000F80A256EF20C0673256C256EF20E007EF3078
S31500000F90D00DD247324793164400818E9206BE96F4
S31500000FA013162700B2968C42EF30C0033247C24771
S31500000FB00243E34EA0F8FD562320D30092460507D0
S31500000FC0910793840402E34DD7F8B684A247635D84
S31500000FD0F036A2477257C6464655B383E7005257C6
S31500000FE01386060EF24693174700B385E740BEC048
S31500000FF096478A038A053E96A647BE93984291066F
S31500001000B387E5009607AA9763430700984318C27B
S315000010101106E395D3FE5257864799669386C65BBB
S31500001020998F16471EC2A6C2C653F2443303D70091
S3150000103081428A0709A8124723A0C5E291048502C6
S3150000104011036385E40E984093952200D4143384EB
S31500001050E700160403260300B6951E94E34D07FC2D
S3150000106016061385C1AB0C4032952AC063C605220D
S315000010703ED6824714480C4403A70779232204006E
S315000010801ED23A8516D01ACE3ACA36C6EF30202777
S31500001090B2469104B685EF30802683A54183EF30B2
S315000010A06003B246B685EF20701D824754484C4413
S315000010B003A64779AA8023281400328532C836C68B
S315000010C0EF30E023B246B685EF30602383A5418337
S315000010D0EF304000B246B685EF20501A8247144CD6
S315000010E042465247AA8503A5877950C44CC818C4FE
S315000010F0B68536C6EF30A02083A54183EF20907DCC
S31500001100B246B685EF20901782477243925303D7B3
S31500001110C7798386E77908CC231EE4001247230F9C
S31500001120D400B25782521103E39FE4F09644A247DB
S31500001130D2560647D014B645158F0A073E979397A1
S315000011402200B29746460A07FD563297564623A016
S31500001150D7E2A2472E962320D72C1CC263599002B1
S31500001160F2571146FD55B386F400B9679387C7DB7E
S315000011709606BE96E257D8430507D8C36355E600E0
S315000011808CC323A2070093870702E396F6FEE25775
S31500001190014601479305C0033285634B970EE2462D
S315000011A09304170023A2070084C2FD5694C3931626
S315000011B02500D014B29603A606E2930615003685DE
S315000011C01384C1AB93165600A296634C060403A47F
S315000011D0467803C6C67983A3067980C32300C10077
S315000011E01304000083A2467903A3867903C6D67941
S315000011F0C0CB83C6E67980CB0344010023A2070057
S3150000120023A4770023A6570023AC6700238E87000C
S31500001210A38EC700238FD700050793870702E31E17
S31500001220B7F652578647C656998F8A071387F4FF33
S31500001230BA979607B6979C4363D40700E24798C3CC
S31500001240E257938707783EDCF2579387C7033EDE63
S31500001250D257EDE385473EDA5DBE52479397450088
S315000012608D8F9207BA974247939524001AC6338505
S31500001270E700AE978C43084132C236C0EF20105EBD
S31500001280824612463243E35205C6FD571CC0B1B929
S315000012909443E3D306F821BF0326457810C0C9BBA3
S315000012A09384018739661384C1239303C6DB23A283
S315000012B0040023A004001306C6DB930204787D55C0
S315000012C0A5A00C440323440013040402139725002D
S315000012D026971443939745008D8F8A07B697850600
S315000012E014C3032704FF96079E9798C713070000A9
S315000012F0D8CB98CB032784FF832544FF23A0670020
S3150000130098CF0347C4FF23A20700CCC7238EE7006C
S315000013100347D4FF13060602A38EE7000347E4FF44
S31500001320238FE700630854001C4008C22320A678D8
S31500001330E3D907F88320C126032481268324412686
S3150000134001451301012782805257814281471207C6
S31500001350BAC0F9BBA247E3C907FEA2477245930587
S31500001360F00F138617000A06EF10A06E85B1611103
S3150000137022C226C040410441832385008322C50042
S31500001380032305015049144D484D93975500138783
S31500001390C1ABBA9784C3C0C323A4770023A6570062
S315000013A023A86700D0CB94CFC8CF85059307B00399
S315000013B063C6B70096052E97FD571CC31244824498
S315000013C00145210182806FF0AFF29382818693936B
S315000013D0250033837200832703006358F002939736
S315000013E04500B385B740996792059387C779AE974D
S315000013F0AA86014790430507910790C2032603007A
S315000014009106E349C7FE0A073A95FD571CC19E920D
S3150000141003A502008280311122C606C826C41964BB
S3150000142021A08327400C81EB952665DDC24032441E
S31500001430A244510182809304C46B9387044A2320FB
S31500001440F00E0325800C8326000C1386C1AB938710
S31500001450C1AB130606789D8E3387F60018439107B5
S3150000146023AEE7FEE39AC7FEEFF08FE89387818607
S3150000147003A30700635060061387444A131623002C
S315000014803A859385040E1AC232C0EF1040490246CF
S31500001490938781861243D4433307C500FD571CC387
S315000014A023A0644A6351D0049387445913962600B7
S315000014B03E859385041D36C232C0EF104046024673
S315000014C09246B307C5007D5798C323A8D458232254
S315000014D0000C99BFD4431387444AFD571CC323A06D
S315000014E0644AE343D0FC93874459F1BF03C5018A9C
S315000014F082801375F50F2380A18AC1772380A70008
S31500001500828083C6018A85473395A700558D13755A
S31500001510F50F2380A18AC1772380A700828083C626
S31500001520018A85473395A7001345F5FF758D2380FE
S31500001530A18AC1772380A7008280C17703C50700EF
S315000015401375F50F828023A6A188E17681458CC2AA
S315000015500146D0C203A6C1889357F64190C6DCC6A1
S3150000156023AE01889307000873A047308280930753
S31500001570000873B047308280E176014798C2814700
S31500001580DCC203A6C1889357F64190C6DCC6930712
S31500001590000873A047308280E1778843CC4382807D
S315000015A083A5C1891565130505BF6F00D0578567EB
S315000015B09387078073A0473082808567938707806B
S315000015C073B04730828023A8A188828083A781894F
S315000015D0F5DF23AC01888280635BA000814683A788
S315000015E08189F5DF23AC01888506E31AD5FE828062
S315000015F023AEA188828003A5C1898280511106C4C9
S3150000160022C2F327403493F70708BDC783C7018A70
S315000016104177E17593E707082380F18A2300F700F5
S3150000162083A7C1889045D44513D7F7413385C700B2
S31500001630B337F5003697B386E70083A7818888C558
S31500001640D4C591C3829783A7418891C3829783A704
S31500001650C189850723AEF188054723ACE188930746
S31500001660000873A0473083C7018A417793F7F707CD
S315000016702380F18A2300F700F3274034AD83858B5E
S3150000168089E7A240124431018280952883A7018808
S3150000169091C3829783A7C18791C3829783A78187C6
S315000016A091C3829785679387078073A04730A240CE
S315000016B012443101828023A4A188828023A2A188BA
S315000016C0828023A0A188828023AEA186828023AC5B
S315000016D0A186828023A20188828023A40188828039
S315000016E023A00188828023AE0186828023AC0186F6
S315000016F0828042054185C1772391A70282805111DC
S3150000170026C006C422C2C17403C414020545D53BD3
S315000017101374F40F118815C483C7318A3D67130704
S31500001720C7CB850793F7F70F3E9703470700A381BB
S31500001730F18A2380E40203C7418A83C7318A63089A
S31500001740F7001244A240824405453101C9BBA3807B
S3150000175004021244A240824405453101C9B3C17650
S3150000176083C7160213871602858BFDFB03C5060287
S31500001770834707001375F50F858B81EB854623009C
S31500001780D70083470700858BFDDB8280C17703C5C1
S3150000179017021345F5FF05898280417783471702B3
S315000017A0898BEDFF2300A702828003C7418A83C786
S315000017B0318A1D46998F93F7F70F6377F6004176C6
S315000017C083471602898BEDFF0507BD671377F70F71
S315000017D09387C7CBBA972382E18A2380A700214744
S315000017E0C177A380E702E1B3328515CEB383C50086
S315000017F0C1760543850583C7160213871602858BB6
S31500001800FDFB83C206028347070093F2F20F858B26
S3150000181099E72300670083470700858BFDDBA38FCD
S3150000182055FEE39975FC8280411106C622C426C284
S3150000183032C011CAAE843384C50003C504008504D2
S31500001840AD37E39C84FEB2402244024592444101F6
S3150000185082802A87328511CE3383C5001C438505D5
S315000018609386170014C383C70700A38FF5FEE3977B
S3150000187065FE82802A87328511CE3383C5001C43DC
S3150000188085059386170014C383C6F5FF2380D7000A
S31500001890E39765FE82801301C1FC22D632C82A84F2
S315000018A006D826D436C418109D4721467D5593F692
S315000018B0F500A303D70091813E83B306F64089C5A0
S315000018C0FD177D17E395A7FE424636CA1ACC21CEF0
S315000018D0224793741700A1E80A07418B13070702F2
S315000018E063D4C6041377F70F3AC24247A28493051E
S315000018F0F1013EC63A84924794448840A30FF10012
S3150000190005462EC0829682457D146354A00CC247BC
S31500001910B3868740D247E39087FE52472684B24774
S31500001920B6843AC821A081449305F1012247228357
S315000019302684098B133717001607130717043AC4B2
S315000019401810BA9721073AC6BE8403C70400A247F7
S31500001950930667FFBE96A5471306070393F6F60F91
S3150000196063E4E7009376F60F03278300032503005D
S31500001970A30FD10005461AC22EC002978245124314
S3150000198085046358A004B2470504E390F4FCE247DB
S315000019904247A284E117BA97A6973EC2D2471A8455
S315000019A063D2E7041844084093070002A30FF1002E
S315000019B005462EC0029782458504635CA0009247C7
S315000019C0E39297FEC25032541245A25413014103CA
S315000019D08280C2503254FD573EC21245A2541301B2
S315000019E04103828026C2F9BF1301C1FC93F786002A
S315000019F006D822D626D43EC432C82A836394071258
S31500001A0063C40512130561028142A947254633F7CF
S31500001A10F5027D15AE831684B384574085021307FD
S31500001A200703A300E500B3D5F50263747610E390CF
S31500001A30F2FE832783000325030002C402C6930532
S31500001A40B101424629CA13F7160031E7139426005E
S31500001A5041881304040263D0C2041374F40F22CA2B
S31500001A6016C232849A84524705462EC0A30DE10061
S31500001A708297C2477D148245338787406354A00E00
S31500001A80A2469C44884036979246E39E86FCB682E0
S31500001A9026833AC436C83247600816CAB304E4003F
S31500001AA029A0832783000325030083C60400054677
S31500001AB01AC2A30DD1002EC0829732478547818F67
S31500001AC0998F224782451243BA97A6978504635B8E
S31500001AD0A00813077102E31697FCD242424793040B
S31500001AE00002330457403E9463D6E20222C43E8489
S31500001AF00327830003250300A30D910005461AC2A0
S31500001B002EC00297824512430504635DA004A247D6
S31500001B10E310F4FE3E84C25022853254A2541301CF
S31500001B204103828002C4F9BD8547B305B0403EC477
S31500001B30D1BD224726C6832783000325030001D390
S31500001B4013F7460005EB3307864030103AC6329746
S31500001B501306D002230AC7FE02C49305B1019302FD
S31500001B602400C5B57D54C25022853254A2541301B7
S31500001B70410382801307D0029305B101A30DE10052
S31500001B80054636CA1AC22EC08297E35DA0FC1243F0
S31500001B908245D2468327830003250300930224004F
S31500001BA04DB5411122C49C452A84884106C6A3012D
S31500001BB0810005469305310082976357A000B24025
S31500001BC022852244410182807D54D5BF834705008A
S31500001BD095CF411122C426C206C6AE841304150051
S31500001BE098448840A301F100054693053100050499
S31500001BF00297635BA0008347F4FFFDF30145B24003
S31500001C0022449244410182807D55D5BF01458280A0
S31500001C1095674111938787FC22C498472A84884395
S31500001C2006C6A30181000546930531000297635756
S31500001C30A000B24022852244410182807D54D5BF56
S31500001C40311106C822C626C483470500B1C71567E9
S31500001C501304150093057100930487FC944488408F
S31500001C60A303F10005462EC08296824505046355FE
S31500001C70A0008347F4FFFDF39C4488402947A30353
S31500001C80E10005468297A947635EA000C240324440
S31500001C90A2443E8551018280156793057100930425
S31500001CA087FCD9BFFD57DDB73386C502DC42AA855E
S31500001CB0884282873386C5029C46AA8588428287E7
S31500001CC05C410841411106C60546930531008297DD
S31500001CD06357A00003453100B240410182807D5523
S31500001CE0E5BF211106CA22C826C62AC26355B0041A
S31500001CF0B307B500B2842A843EC021A0824763821E
S31500001D008702D840884005469305B100050402972E
S31500001D106351A0020347B100A947A30FE4FEE31FE6
S31500001D20F7FC124523000400D2404244B24461014C
S31500001D3082800145D5BF1244EDB79567938787FC2E
S31500001D40D8438843411106C60546930531000297DC
S31500001D506357A00003453100B240410182807D55A2
S31500001D60E5BF1301C1FB86C022DE26DC83C7050062
S31500001D7032C2638B07529384150026842E8702C0D5
S31500001D800143AA8493065002638CD7029844884084
S31500001D902304F10205462C1002976352A0102287F5
S31500001DA00543130417008246834707009A9636C0F8
S31500001DB0F1FB864072540245E254130141048280CD
S31500001DC0834617009307C0066382F60A9307D0027C
S31500001DD06383F60A93070003638DF62A0907814297
S31500001DE0138606FD9373F60F25458147A545636067
S31500001DF075028346070013952700AA978607B297B0
S31500001E00138606FD1375F60F0507E3F4A5FE130604
S31500001E10E00201446384C62413068007E363D6F810
S31500001E20130670056371D602938686FA93F6F60F4B
S31500001E3013060002E367D6F615668A06130686C001
S31500001E40B29694428286638B062493075002E39AE5
S31500001E50F6F49C4488402304D10205462C103AC46B
S31500001E6082972247635DA002054325BF834627006C
S31500001E7081420D07B5B78346270085420D078DB70A
S31500001E803AC4124796860C433E86268513044700BD
S31500001E90193422472A8322C2FD57E314F3F0864001
S31500001EA07254FD573EC00245E2541301410482803C
S31500001EB092468842910636CA2AC46384071E93F660
S31500001EC0120036C66393063C3AC83EC2012B9247BF
S31500001ED042476358F542341036C23EC63ACC2AC849
S31500001EE03E84984488409245930700022304F102F9
S31500001EF005460297E355A0FAB2477D14338787401B
S31500001F00C247E39087FE3AC622836247A28761AA48
S31500001F1012461442110632CA630A04388145054541
S31500001F2013162500329585050605E39B85FE3ECCF6
S31500001F3016C83AC636C2EF20007592462A86930521
S31500001F400000368536C432C2EF2040111246A24642
S31500001F503247C242E2476346051EB28536853AC815
S31500001F6016C63EC4EF20001783A58181EF101031FD
S31500001F70EF20606BA247B242424702C2B1464C18FC
S31500001F803384864031462943B3666502B2837D16A3
S31500001F90938606032380D500334565026306862CA7
S31500001FA0FD157DF2B946B3837640795363850720E4
S31500001FB093F6120036C66390062063DFF31E3E8456
S31500001FC0930571023EC61AC81EC43ACC9444884092
S31500001FD093070002A303F10205462EC2829692459C
S31500001FE0E35FA0EAB2477D14B3868740A247E31FAA
S31500001FF0F4FC4243624736C6BE83C9A23AC41247BE
S3150000200096860C433E86268513044700F13A2247FE
S315000020102A8322C251B592478840054680439C4494
S315000020202C10230481023AC48297924722471374E4
S31500002030F40F9107E355A0E622836353800005431E
S315000020403EC285B33AC4124793E622000C432DBD27
S315000020503AC4124793E682000C436DB783460700E5
S31500002060A5450507138606FD1375F60FE3E6A5DA03
S3150000207025458346070093152400A295860533045B
S31500002080B600138606FD9375F60F0507E373B5FED6
S3150000209061B38346270091420D0799B33A847D17B1
S315000020A019B302C60143A24603C6060013841600EE
S315000020B063030624341036C2A2463ECCA687B30676
S315000020C0D340A28436C83ACE3E841844084092458E
S315000020D02304C10205460297E353A0DCB247224718
S315000020E003C604003387E740C2472697B3859700A7
S315000020F0850461FEE2473A83A284724763DCF51EDB
S315000021009A978D8F3EC613040002A6873AC89A8412
S315000021109847884392452304810205463EC40297A8
S31500002120A247E35EA0D632478504E393E4FE424726
S315000021302683BE84D247130417003EC2ADB103A660
S31500002140818237050080B285358D3AC616C43EC2F7
S31500002150EF10507883A58181EF105012EF20A04C2C
S315000021608546924736C2A242324785433143E3173A
S3150000217004E0A946B365D50230181A96A940B346BD
S31500002180D502938505032308B6FE3010B305660015
S3150000219099EE75A833E61602FD1513851300B3C62E
S315000021A01602130606032380C500C5C6AA837D133F
S315000021B0E31203FEE5BB02C693057102341036C274
S315000021C09A9626843ECC1AC81ECEB6843AD003C64A
S315000021D004001C440840A303C10205462EC482978E
S315000021E0A245E35EA0CA12478547998F4247998F59
S315000021F03247BA97A697130751038504E31997FC4C
S31500002200F243A2843E84E247025733837740229307
S3150000221063D0F30EA6871AC4A2843AC63E84144439
S31500002220084093070002A303F10205462EC28296D8
S315000022309245E356A0C6A2478504E392F4FE3247D0
S315000022403E83A284D247130417003EC2A9BE1E8550
S31500002250A2839246A1CA7D1334189A961306D00219
S315000022602388C6FE890399B3341836969306E0028E
S3150000227039442308D6FE1383E3FF330474406354C2
S315000022806008BD46B3837640EDB5A24602C601435B
S3150000229003C6060013841600E31E06E034108145CB
S315000022A036C2B9BDAA8319B302C021B636859305D5
S315000022B000003AC816C63EC436C2EF10305A9246DF
S315000022C0A247B2424247E34C05E683A58181854396
S315000022D036853ACC16C83EC61EC4EF10207AEF20CB
S315000022E08034B247C242624702C23143854351B588
S315000022F0228389BF1AC6D2473243130417003EC24F
S315000023005DB42A834DB3A28355B1011113030101B4
S3150000231032C81A8606C636CA3ACC3ECE1AC09134A0
S31500002320B240056182801301C1FD130301012EC86D
S31500002330AA85156532CA130585FC1A8606C636CCEB
S315000023403ACE3ED01AC0313CB240130141028280DF
S3150000235079713ED6896793872785130301023EC6A6
S3150000236089672AC032D09387478728001A8606CE07
S315000023703EC836D23AD40AC41AC2E532824723800E
S315000023800700F2404561828029C583460500AE8775
S3150000239019A06387E60203C7070085077DFB91CE78
S315000023A02A86AE8719A0630FD70003C707008507E3
S315000023B07DFB834616000506EDF623A4018A82807E
S315000023C00505E1B79307160023A4F18A230006004A
S315000023D0828003A5818A55F90145828083470500DD
S315000023E0AA8691CB814785073387F6000347070006
S315000023F03E8575FB82800145828023A6A18A828064
S31500002400411126C283A4418B06C622C4635590049B
S315000024103D649307C4DB26863EC019A003A6418B04
S3150000242003A7818B9567B30590401385C7C84107FD
S31500002430AE8763549600B307C040BA9713D7F741E7
S315000024407183BA97BD8B998F02478A07FD14BA9795
S315000024509043D13DE1F4B24022449244410182804E
S31500002460834705006389070E95662A862A87938621
S3150000247016D129A0834707006382070EB69783C744
S3150000248007000507A18BFDF783A7418B311106C80D
S3150000249022C626C43EC0B306F040634FF00A03A42A
S315000024A0818B3D679304C7DB93070401B69793D6E8
S315000024B0F741F182B697BD8B958F8A07A6978C4315
S315000024C0328532C21D2D59C112463285013F9317FE
S315000024D02400A697930615009305400803A307005A
S315000024E0124663F6D5002302060893065008B28505
S315000024F01A8536C2EF00407283A5018B92462302ED
S3150000250005081306B037AE96634BD60493850404CC
S3150000251023A8D18AB69505049357F44113D6C7016B
S3150000252032949377F400918F139627003387D40063
S315000025302696824423ACF18A0CC223000704BD47C9
S3150000254063D39700BD44850423AA918AC2403244CE
S31500002550A244510182808280FD5691B7828023A8D1
S31500002560018A9385040481467DB71301C1FD22CEFD
S3150000257006D026CC2A8403450500050419C50504A2
S31500002580EFF00FE90345F4FF7DF983A7818B83A65E
S31500002590018B3D671306C7DB8A0713070604B2974C
S315000025A0369798C3BD679384C71F9567938797C966
S315000025B032C22300064402C63EC422446D450504C9
S315000025C0EFF00FE50345F4FF7DF9BD679387C71F5D
S315000025D063FB97002145EFF0AFE3BD67FD149387DA
S315000025E0C71FE399F4FE83A7C18A91C38297EFF0D0
S315000025F0CFF49377F50F6D471374F50F634CF7041B
S31500002600B1CF636DF704956613972700938606CAC4
S315000026103697184302878504EFF08FDF03C5040061
S315000026207DF9A947630BF400BD679387C71FB3877E
S31500002630F44013071008E358F7FABD671385C71F60
S31500002640053582507244BD67E2441385C71F1301E6
S31500002650410282801307F0076385E71615671307A3
S3150000266017D13E9703470700137777095DDB03C64B
S315000026700400138714003AC06318061C23808400E4
S31500002680A38004003E85EFF0AFD8824459BF1307FC
S315000026904004E398E7F8BD679387C71FE3F397F80D
S315000026A02145EFF0EFD6FD14ADBF03C5040035D9C3
S315000026B08504EFF0EFD5B5B7BD679387C71FE3F283
S315000026C097F62145EFF0CFD4BD67FD149387C71F5A
S315000026D0E399F4FEA947E318F4F085B783A7C18A06
S315000026E091C38297EFF06FE51374F50F9307F0042B
S315000026F06306F4009307B005E315F4F283A7C18AD5
S3150000270091C38297EFF06FE39377F50F13073004C9
S315000027101374F50FE38BE7F8E34BF7F61307100492
S31500002720638BE71813072004E39DE7EEBD679387E5
S31500002730C71F63FB97002145EFF08FCDBD67FD14E2
S315000027409387C71FE399F4FE03A4818BB24763996D
S31500002750070E124793172400BA978843BD679385DF
S31500002760C71F5D297D5783A7418B05073AC6B30767
S31500002770F04063D3E700BA8713070401BA9713D76B
S31500002780F7417183BA97BD8B998F12478A07BA971B
S315000027908C43BD671385C71F4121924703C5074474
S315000027A0BD679384C71FE30A05E08504EFF04FC6B3
S315000027B003C504007DF911B52945EFF06FC58931D0
S315000027C08DB5BD679387C71FE3FD97E483C7F4FF05
S315000027D01387F4FF3AC8DDEF9387E4FF238F04FEE7
S315000027E021453EC0C244EFF0AFC28247014703C550
S315000027F007005DCD22CA3A8422C0EFF06FC10504FE
S31500002800B387840003C5F7FF65F922875244A244C3
S3150000281022CA6D452684BA840504EFF06FBF0345CE
S31500002820F4FF7DF952446384040E0244FD547D1482
S315000028302145EFF0EFBDE31C94FE5244C244D5B3EC
S315000028403247E35107F205B73E87A68619A003C6AD
S3150000285006002380E6003287850675FA2380060087
S315000028603E85EFF0EFBA03C51400890419C5850447
S31500002870EFF00FBA03C5F4FF7DF90245EFF01FB67E
S31500002880AA84E30405E0FD142145EFF06FB8E5FCEA
S31500002890824441BB3A85A68541269387F4FF2145AC
S315000028A03EC0EFF0EFB68247014703C5070039F196
S315000028B0FD573EC0A9BFBD679387C71F63FB97003F
S315000028C02145EFF0EFB4BD67FD149387C71FE39969
S315000028D0F4FE03A4818BB2478DC383A7418BB24616
S315000028E04104B307F04033A7D7003387E6403AC622
S315000028F063D3E700BA87A29759B512479317240006
S31500002900BA978843BD679385C71F3926F9B7C2446E
S3150000291009BB2946814535A3A9460146C9A9B3C7BE
S31500002920A5008D8BB306C500A9E78D4763F3C704E1
S3150000293013773500AA8731EB13F7C6FF3303F74049
S3150000294013060002634766062E833E8663F0E7029F
S315000029508322030011061103232E56FEE36AE6FEC8
S315000029607D171D8F719B1107BA97BA9563E6D7003D
S315000029708280AA87637ED50203C705008507850581
S31500002980A38FE7FEE3EAD7FE828003C6050085072C
S3150000299013F73700A38FC7FE850559DF03C6050069
S315000029A0850713F73700A38FC7FE850579FF69B73B
S315000029B08280611122C226C013040002904983A3BB
S315000029C0450083A2850090CBD04903A3C50084416E
S315000029D0D0CB904D23A2770083A3050290CFD04D94
S315000029E084C323A4570023A66700D0CF938747024A
S315000029F03306F74023AE77FE93854502E340C4FCD9
S31500002A002E833E8663F0E70283220300110611033C
S31500002A10232E56FEE36AE6FE7D171D8F719B110776
S31500002A20BA97BA9563E6D7001244824421018280A0
S31500002A3003C7050085078505A38FE7FEE3F6D7FEE6
S31500002A4003C7050085078505A38FE7FEE3E2D7FEEA
S31500002A50E1BF3D432A876373C3029377F700BDEF57
S31500002A60ADE5937606FF3D8ABA960CC34CC30CC7F8
S31500002A704CC74107E36BD7FE11E28280B306C34021
S31500002A808A069702000096966780A6002307B7007D
S31500002A90A306B7002306B700A305B7002305B700B2
S31500002AA0A304B7002304B700A303B7002303B700AA
S31500002AB0A302B7002302B700A301B7002301B700A2
S31500002AC0A300B7002300B700828093F5F50F939615
S31500002AD08500D58D93960501D58D61B79396270010
S31500002AE09702000096968682E78086FA9680C1173E
S31500002AF01D8F3E96E374C3F8A5B73367B500FD5343
S31500002B000D8B79E7B7877F7F9387F7F7104194415D
S31500002B10B372F6003363F600BE92B3E262006397C7
S31500002B20720C6318D6065041D441B372F600336373
S31500002B30F600BE92B3E262006398720A631BD60483
S31500002B4010459445B372F6003363F600BE92B3E2C5
S31500002B5062006391720A631ED6025045D445B37271
S31500002B60F6003363F600BE92B3E26200639A72081F
S31500002B706311D60210499449B372F6003363F60026
S31500002B80BE92B3E26200639372085105D105E30F6A
S31500002B90D6F61317060193970601631CF700135721
S31500002BA0060193D706013305F7409375F50F91E9B2
S31500002BB082804183C1833305F7409375F50F91E118
S31500002BC082801377F70F93F7F70F3305F74082806C
S31500002BD00346050083C60500050585056313D60073
S31500002BE065FA3305D640828011059105E312D6FEBB
S31500002BF0014582802105A105E31CD6FC01458280A2
S31500002C003105B105E316D6FC014582804105C105B3
S31500002C10E310D6FC01458280B367B5008D8BB1EF1A
S31500002C209841B7867F7F9386F6F7B377D700B69736
S31500002C30D98FD58F7D56639BC7042A867D5318C2CC
S31500002C40D84191051106B377D700B697D98FD58F9E
S31500002C50E38767FE83C7050003C7150083C6250003
S31500002C602300F60099C7A300E60001C72301D6009A
S31500002C7091E28280A30106008280AA8703C705002D
S31500002C8085078505A38FE7FE75FB82802A86D9B75F
S31500002C9011112AC8156522CC26CA2E872EC432C029
S31500002CA0130515D183470700BA8505073306F500D6
S31500002CB003460600218A7DF61306D002638FC70CF1
S31500002CC01306B0026380C706B704008093C4F4FFFE
S31500002CD002C6BDC241463684638AC60C33F68402F8
S31500002CE0814501452543E543B3D2840232C21386AA
S31500002CF007FD6378C3001386F7FB63E8C3041386F6
S31500002D0097FC635CD60463C00504FD5563E8A20026
S31500002D106385A206854533058502329505078347F7
S31500002D20F7FFF1B7B704008002C68347070093C4D4
S31500002D30F4FF13872500D9FE93060003638CD7089A
S31500002D402944A94661BFFD55D1BF1386F7F963E64D
S31500002D50C300138697FAE348D6FA63C40502B2475E
S31500002D6099C33305A040824789C7C1E182472247FC
S31500002D7098C36244D244710182809247E3C0C7FA85
S31500002D8051BFC2469307200226859CC28247F5D3CF
S31500002D909307F7FF3EC42685D1BF05468347070044
S31500002DA0B70400801387250032C625B71306000333
S31500002DB0639AC70003460700930580051376F60D50
S31500002DC06304B600414419BF83471700414409070D
S31500002DD0C14629B7834607001306800593F6F60D0C
S31500002DE0E384C6FE2144A146D5BDAA8455B705474E
S31500002DF06387E600130740026363D70051BD511194
S31500002E0006C4EFD04FA4A240D9471CC101453101E9
S31500002E1082800547630DE600130740026369C70019
S31500002E20AA8703A58184B2862E86BE8595B55111E3
S31500002E3006C4EFD04FA1A240D9471CC101453101BC
S31500002E4082800547630DE600130740026369C700E9
S31500002E50AA8703A58184B2862E86BE8515BD51112B
S31500002E6006C4EFD04F9EA240D9471CC1014531018F
S31500002E7082802111156322CA26C82AC632C02E872F
S31500002E80130313D1834707003A8505073306F3007A
S31500002E9003460600218A7DF61306D002638BC70C13
S31500002EA01306B00202C46389C70681CE4146638910
S31500002EB0C60C7D56B353D602B6843376D60232C2DA
S31500002EC029A8930600036384D70E9546B7A39919DC
S31500002ED036C293839399A944A94601430145A54265
S31500002EE06544138607FD63F8C2001386F7FB636C1F
S31500002EF0C402138697FC6350D604634403027D53D1
S31500002F0063E8A3006309750433059502054332950A
S31500002F1005078347F7FFF1B7834707001307250027
S31500002F2069B77D53F5B71386F7F96366C400138650
S31500002F3097FAE344D6FC63440302A24799C33305D8
S31500002F40A040824789C76313030282478CC3524459
S31500002F50C244610182809247E3CCC7FA75B7B24694
S31500002F60930720027D559CC28247F5D39305F7FF50
S31500002F70E9BF8347070005473AC41307250035B75D
S31500002F8013060003639CC704034607001305800568
S31500002F901376F60D631DA602BD46B70300108347E0
S31500002FA0170036C20907FD13C144C1463DB7834623
S31500002FB007001306800593F6F60DE38FC6FC9D46C3
S31500002FC0B703002036C2FD13A144A14639B7FD530D
S31500002FD03D46B3D3D302C14432C201B73D46B7031F
S31500002FE0001032C2FD13C144CDBD61B5AA8703A549
S31500002FF08184B2862E86BE85ADBDAA8703A581844F
S31500003000B2862E86BE85B5B5370310007D13311105
S31500003010B377B30013D7450126C48E079374F77FA1
S315000030201357D501D98F3377D30013D3460122C660
S315000030301373F37F13D4F5010E0793D5F60106C873
S315000030409356D601558F0E050E06B386644063145B
S31500003050B4226352D00E63180302B365C700638AB5
S3150000306005209385F6FF89E92A963335A600BA9797
S31500003070AA9732858544B9A81303F07F639D66003D
S315000030809304F07F71AA9305F07F638BB418B7059C
S3150000309080004D8FB6859306800363CAB608FD4649
S315000030A063C1B606130300023303B340B3166700C9
S315000030B0B352B60033166600B3E656003336C00088
S315000030C0558E3357B7002A963335A6003E97B30779
S315000030D0A7003285370780007D8F630307148504B8
S315000030E01307F07F638BE448370780FF7D17F98F5E
S315000030F0135715000589598D1397F701598D858347
S3150000310005A2938605FE93020002B356D70001433B
S315000031106388550013030004B305B3403313B700A7
S315000031203366C3003336C000558E014769BF598EDA
S315000031303336C000DDBFCDCAB30593408DE4B3E698
S31500003140A700638306429386F5FF99E63295BA9700
S315000031503336C500B29739BF9302F07F639D5500A1
S31500003160BA87328531BF9306F07FE30BD3FEB706ED
S315000031708000D58FAE869305800363C3D506FD45D3
S3150000318063CAD50293020002B382D240B3955700B8
S31500003190B353D50033155500B3E575003335A0009C
S315000031A04D8DB3D7D7003295BA973336C500B2974F
S315000031B09A840DB7938506FE93030002B3D5B70034
S315000031C081426388760093020004B386D240B392AC
S315000031D0D70033E5A2003335A0004D8D8147E1B716
S315000031E05D8D3335A000DDBF9386140093F5E67F31
S315000031F0BDE1B3E6A700A9E4638C0636B366C70053
S3150000320085C22A96BA973335A600AA973707800053
S315000032107D8F328511C7370780FF7D17F98F85446B
S3150000322013777500630D07341377F500914663082D
S31500003230D734130745003335A700AA973A8581A6E8
S3150000324085D2598EE30E06E20144B70740000145D8
S315000032509304F07F2DA69305F07F638EB6302A96F1
S315000032603335A600BA97AA971395F7010582518DB3
S315000032708583B68475B76354D00C631F0306B365A4
S31500003280C700E5D99385F6FF91E93306C540333586
S31500003290C500998F898F32858544B1A01303F07FCD
S315000032A0E38066DE9306800363C7B608FD4663CEF9
S315000032B0B604130300023303B340B3166700B352D8
S315000032C0B60033166600B3E656003336C000558E98
S315000032D03357B7003306C5403335C5003387E7405B
S315000032E0B307A7403285B706800033F7D7000DDB5A
S315000032F0FD16FD8E2A8355AA9305F07FE382B4F26C
S31500003300B70580004D8FB68571BF938605FE930283
S315000033100002B356D7000143638855001303000427
S31500003320B305B3403313B7003366C3003336C0006A
S31500003330558E014745B7598E3336C000DDBFF9C2F9
S31500003340B302934095E8B3E6A70063880628938600
S31500003350F2FF91EA3305A640B307F7403336A600DD
S31500003360918F2E8415BF9303F07F639F7200BA87F7
S3150000337032859304F07F7DA09306F07FE309D3FEA8
S31500003380B7068000D58F96869302800363C8D2065F
S31500003390FD4263CED20293030002B383D340B392BD
S315000033A077003354D50033157500B3E28200333508
S315000033B0A00033E5A200B3D7D7003305A640B30774
S315000033C0F7403336A600918F9A842E8429BF9382C4
S315000033D006FE13040002B3D25700814363888600B9
S315000033E093030004B386D340B393D70033E5A30019
S315000033F03335A00033E5A2008147C1B75D8D333573
S31500003400A000DDBF9386140093F6E67FA5EA33E3BA
S31500003410A700B366C700A1E8631803006383061C10
S31500003420BA8732852E84EDBBE38C06DE3303C540B6
S31500003430B3326500B386E740B3865640B7028000D4
S31500003440B3F25600638A02003305A640B307F7407D
S315000034503336A600918FF9B73365D3006307051895
S31500003460B6871A8575BB6318030063820618BA8788
S3150000347032852E8431B1E38506C0F9B33303C540E6
S31500003480B3326500B386E740B3865640B702800084
S31500003490B3F25600638B02063303A640B307F74028
S315000034A033366600B386C7402E84B5C636851AC243
S315000034B036C0EF10004E82461243130785FFFD47C4
S315000034C063C5E70693070002998FB396E600B357E4
S315000034D0F300D58F3315E30063429708058F130673
S315000034E01700FD4663C9C60413070002118FB39681
S315000034F0E700B355C5003315E500CD8E3335A00082
S31500003500558DB3D7C700814421BB3365D30051FD28
S3150000351081478144C9A81A8536C21AC0EF10604790
S31500003520924602431305050249BF930785FDB3176B
S31500003530F300014555B705179305000233D7E70099
S3150000354081466307B60093060004918EB396D700B2
S31500003550558D3335A000598D814775B7998C37073E
S3150000356080FF7D17F98F6DB9BA873285AE844DB964
S31500003570BA87328575B19304F07F814701453707D5
S3150000358080007D8F11CB85041307F07F6386E406E8
S31500003590370780FF7D17F98F1397D7010D81598D56
S315000035A01307F07F8D836399E4005D8D814709C51C
S315000035B0B70708000145014413974401B706F07F99
S315000035C0B207758FB1837E04D98FC24033E7870077
S315000035D03244A244BA8551018280BA8732859684E4
S315000035E091B581470145014459BF8147EDBF01456A
S315000035F00144B7074000A9B98147014571BF1301CE
S3150000360081FD9397C50026CE13D3450193D4C700F9
S3150000361093D7F50122D006D21373F37F3EC42A84D2
S31500003620630703089307F07F6301F30E13973400D3
S315000036309357D501D98F37078000B3E4E700931578
S315000036403500130313C0014413D5460113D7F60101
S315000036509397C6001375F57F3AC6B18361C9130700
S31500003660F07F630EE5121357D6018E07D98F370701
S315000036708000D98F93163600130515C001472246E0
S31500003680B2423346560032C03306A30032C805069E
S3150000369032C213162400598E7D1639456362C5124F
S315000036A015650A06130545E12A9610420286B3E51A
S315000036B0A400A5C536C232C085CC2685EF10602D84
S315000036C002469246130755FFF14763CAE702F547DC
S315000036D0930585FF998F3393B400B357F400B3E491
S315000036E06700B315B4001303D0C03303A340A1BFD2
S315000036F0EF10202A9246024613050502E1B793070A
S3150000370085FDB314F4008145F9BFB3E5A40091C962
S31500003710AA851303F07F0D4405BF81440143054488
S3150000372025B781441303F07F094439BFB3E6C700C8
S31500003730BDCEB1C33E8532CA2EC81AC23EC0EF10F6
S31500003740402582471243C2455246930355FF7147AF
S31500003750634177047547930685FF33077740B39730
S31500003760D7003357E600D98FB316D6001307D0C05B
S315000037703305A74021B732853ECA2EC81AC232C0C9
S31500003780EF102021D247C245124302461305050217
S315000037906DBF930785FDB317F6008146C1BFB3E63B
S315000037A0C70091CAB2861305F07F0D47C9BD814790
S315000037B001450547E9B581471305F07F0947C1B5BE
S315000037C013D5050113D406013306850241677D171B
S315000037D0F98DF98EB303D50232C43306B4023383AE
S315000037E0D5021E96B28213560301169663777600AB
S315000037F0B3038502C1629E9216C493520601798E66
S315000038003373E30042061A967D8F32CA13D6070138
S315000038103303E502B387E502B305B60293D3070186
S315000038209A959E953305C50263F4650041631A9522
S3150000383013D305011A952AC641651303F5FFB3F59F
S315000038406500B3F76700C205BE95B387B20033F3D0
S31500003850640093D204013ECCB3046402B3876602CB
S31500003860B386D202B3035402B69413D40701A294CA
S3150000387063F3D400AA9393D60401B693C166138565
S31500003880F6FFE98CE98F33056702C204BE943387DD
S31500003890E20233036602B30256023A931356050157
S315000038A032936373E300B692A2476247C166FD1680
S315000038B03E97B377D300C207758D3E95B247B335B1
S315000038C0B700B2463E953306B5002697B337970044
S315000038D033047600B304F4003335D500B335B600AF
S315000038E0B3B7F400C98D13530301B33374009A952B
S315000038F0B3E7F300AE975246BE9293D67401939700
S315000039009200D58F93169700D18E5D83B336D00083
S31500003910D98E37070001A6047D8FC58E5DC713D7E4
S315000039201600858AD98E1397F701D98E858312479B
S315000039301307F73F635EE00813F6760001CE13F631
S31500003940F60091456308B60013864600B336D600E6
S31500003950B697B286370600017D8E01CA370700FF8B
S315000039607D17F98F1247130707401306E07F634E52
S31500003970E60E1396D7018D82D18E8D833706F07FA2
S315000039805207B207718FB183D98F02479250025402
S315000039907E0733E6E700F2443685B28513018102DD
S315000039A08280A2473EC0A687AE8622870946630E5E
S315000039B0C70A0D466304C70A0546E31AC7F68147D8
S315000039C08146B5A0324632C0D5B742473AC285B71E
S315000039D08545998D13068003E343B6FE7D46634A0B
S315000039E0B604124733D5B6001307E7413396E7000E
S315000039F0B396E600498EB336D000D18EB3D7B70062
S31500003A0013F7760001CF13F7F60011466308C700D7
S31500003A1013874600B336D700B697BA8637078000B5
S31500003A207D8F29EB1397D7018D82D98E8D83014720
S31500003A30B1B705563307E6401305000233D7E70052
S31500003A4001466387A50012461306E6433396C70070
S31500003A50D18EB336D000D98E81475DB7B70708003F
S31500003A6081461307F07F02C011BF814781461307C5
S31500003A70F07F29B781478146054709B741113707C6
S31500003A8080007D1713D6750122C413547501B377D0
S31500003A90A70026C26D8F1374F40F1376F60F06C6B1
S31500003AA09354F501FD818E070E07B306C440639655
S31500003AB0B412635CD00605E2630F07101386F6FFA7
S31500003AC001E6BA97054481A09305F00F639DB60001
S31500003AD01304F00FC1A81306F00F6305C40C3706D4
S31500003AE00004518F3686ED45854663CDC5009306A5
S31500003AF00002918EB355C7003317D7003337E00065
S31500003B00B3E6E500B697370700047D8F41CF05047D
S31500003B101307F00F6307E4223707007E93F61700BA
S31500003B207D178583F98FD58FB5A8B1CAB3068640B0
S31500003B3001EC638207209385F6FFC1D51305F00FCC
S31500003B40639CA600BA8769B79305F00FE30CB6FE2F
S31500003B50B7050004CD8FB6856D458546634DB50026
S31500003B60930600028D8E33D5B700B397D700B337CF
S31500003B70F000B366F500B387E600328469B79306B2
S31500003B80140013F6E60F31E20DE86388071A19CB25
S31500003B90BA97370700047D8F11C7370700FC7D17DA
S31500003BA0F98F054413F77700630E071813F7F7002C
S31500003BB091466309D718910771A2C9D711DB8144D1
S31500003BC0B70700021304F00FB5AA1306F00F6388B7
S31500003BD0C616BA9785833684F1B7635FD00421E6AB
S31500003BE07DDB1386F6FF01E6998F05442DA093052C
S31500003BF0F00FE38FB6ECED45854663CDC500930621
S31500003C000002918EB355C7003317D7003337E00053
S31500003C10B3E6E500958FB706000433F7D70059D30E
S31500003C20FD16FD8EE9A01306F00FE30DC4F6370668
S31500003C300004518F3686C1B7ADC2B306864015E083
S31500003C40638707141385F6FF09E5B307F740AE84CB
S31500003C5069BF1303F00F639E6600BA871304F00F63
S31500003C60B9A01305F00FE30AA6FE37050004C98FB5
S31500003C7036856D438546634DA30093060002898E03
S31500003C8033D3A700B397D700B337F000B366F3007A
S31500003C90B307D7403284AE84BDBF9306140093F6B3
S31500003CA0E60F8DEE0DE491E7814449CFBA87AE84E5
S31500003CB0D5BDE30907EEB386E74037060004758EE7
S31500003CC0B307F7406DF68147B9CEB687E1BDE397F6
S31500003CD007EEE30607EEBA87AE84DDBBB386E740A0
S31500003CE037060004758E0DCEB306F740AE843685D2
S31500003CF036C0EF00104A82466D15B396A60063469D
S31500003D008502018D050513040002B3D7A60033050D
S31500003D10A440B396A600B336D000D58F014459B55A
S31500003D20F9F681470144814431A8B70700FCFD1725
S31500003D30098CF58F85BDBA8779BDBA87A5B51304F9
S31500003D40F00F8147370700047D8F11CB0504130759
S31500003D50F00F6301E404370700FC7D17F98F1307A2
S31500003D60F00F8D836316E40081C7B70740008144D6
S31500003D703705807F5E04A607698CA583B240C18F94
S31500003D8022441395F4015D8D924441018280BA87E5
S31500003D90368431BF8147E1B7111113567501935728
S31500003DA0F50126C81313950006CC22CA1376F60F22
S31500003DB03EC09354930025C69307F00F6300F608A0
S31500003DC013933400B7070004B364F300130616F820
S31500003DD0814613D57501139495001375F50F25804B
S31500003DE013D7F5012DC59307F00F6306F508B7073E
S31500003DF000040E045D8C130515F881478245098E73
S31500003E00139526005D8D7D15B942B98D63EEA20628
S31500003E1095620A05938202E51695084102858DC4CE
S31500003E2026852EC2EF00F0369307B5FF1306A0F8DD
S31500003E309245B394F400098E814661BF1306F00FD4
S31500003E408946C1D88D4671B70146854659B715C80A
S31500003E50228532C636C43AC2EF00B0339307B5FFA7
S31500003E603314F4009307A0F83385A7401247A246FF
S31500003E703246814761B71305F00F894741D08D4718
S31500003E80B5BF014585479DBF1315540063F9840CE2
S31500003E907D1681479352050133D4540241677D173D
S31500003EA0698FC183B3F65402B3038702C206DD8E5F
S31500003EB0A28763FC7600AA969307F4FF63E7A60041
S31500003EC063F576009307E4FFAA96B3867640B3D3EC
S31500003ED05602B3F6560233037702139706019E86FF
S31500003EE0637C67002A979386F3FF6367A700637571
S31500003EF067009386E3FF2A97139407013307674009
S31500003F00558C3337E000598C1305F6076354A00827
S31500003F109377740099C79377F40011476383E7009A
S31500003F201104B7070008E18F99C7B70700F8FD1716
S31500003F307D8C130506089307E00F0D8063C1A70467
S31500003F405E05B707807F26047D8D2580498C1395F5
S31500003F50F501E240418D5244C2447101828093973B
S31500003F60F401858005BF82452684B6870D476382A6
S31500003F70E70605476385E7060947E397E7F801443F
S31500003F801305F00F75BFBA85D5B7370440008145D4
S31500003F908D47E9BF8547898F6D476342F70413064E
S31500003FA0E609B357F4003314C400333480005D8C43
S31500003FB09377740099C79377F40011476383E700FA
S31500003FC01104B7070004E18F0D8099CB0144054524
S31500003FD085BF370440001305F00F814595B70144AE
S31500003FE00145B9BF93567501B7078000FD1713D772
S31500003FF0750193F6F60F1303F00F33F6A700137748
S31500004000F70FED8F7D81FD816395660039C2795585
S31500004010828063136700E5FF9DEE11E38DCB01CA35
S315000040206314B5006359D7000DC17D5582807D5557
S3150000403091C52E85828063D4E60065D98280E3E54A
S31500004040C7FEE36CF6FE014582800545828065DE8B
S31500004050E1BFE302D7FC69F7E1DBD9B793567501F7
S31500004060B7078000FD1713D7750193F6F60F1303F4
S31500004070F00F33F6A7001377F70FED8F7D81FD81E3
S315000040806395660039C20945828063136700E5FFC0
S315000040909DEE11E38DCB01CA6314B5006359D700B9
S315000040A00DC17D5582807D5591C52E85828063D454
S315000040B0E60065D98280E3E5C7FEE36CF6FE0145BE
S315000040C082800545828065DEE1BFE302D7FC69F7A1
S315000040D0E1DBD9B711119317950026C893567501E0
S315000040E093D497009357F50106CC22CA93F6F60FA0
S315000040F03EC0A5CA1307F00F6384E6089397340001
S3150000410037070004B3E4E700938616F8014613D593
S315000041107501139495001375F50F2580FD8135C93A
S315000041201307F00F630BE5080E0437070004598CDC
S31500004130130515F80143824793122600B3E2620085
S315000041403695FD12B94333C7B7009306150063EFE2
S31500004150530615651305C5E88A02AA9203A502004F
S3150000416002858DC426852EC2EF00B0021307B5FF67
S315000041709306A0F89245B394E400898E014641BFA8
S315000041809306F00F0946C1D40D4651B78146054640
S31500004190BDBF15C8228536C632C42EC2EF00607F69
S315000041A01307B5FF3314E4001307A0F8924522461F
S315000041B0B2463305A7400143BDBF1305F00F0943BF
S315000041C03DD80D438DBF01450543B5B7C163938205
S315000041D0F3FF13D6040193550401B3F75400337467
S315000041E0540033038602B304F402B387F50213D4F2
S315000041F004019A97A2973306B60263F367001E96E8
S3150000420033F457004204B3F45400A29413946400A8
S3150000421033348000E980C18C13D4070132941A0428
S31500004220458CB7070008E18FB5C79357140005887A
S315000042305D8C1385F6076351A0069377740099C7C2
S315000042409377F40011466383C7001104B70700088B
S31500004250E18F99C7B70700F8FD177D8C138506080F
S315000042609307E00F0D8063DDA70601441305F00FE9
S3150000427085A80247268432838947E308F3FE8D47E3
S31500004280630BF3048547E316F3FA0144014589A855
S315000042902E87DDB7AA8671BF8547898F6D46E346AF
S315000042A0F6FE9386E609B357F4003314D40033348C
S315000042B080005D8C9377740099C79377F4009146DC
S315000042C06383D7001104B7070004E18F0D80DDDF9B
S315000042D00144054531A0370440001305F00F01479E
S315000042E05E05B707807F26047D8D2580498C1315D2
S315000042F0F701E240418D5244C24471018280370782
S31500004300800041117D1713D67501B377A70022C42B
S315000043106D8F26C21354750106C61376F60F9306E3
S31500004320F00F1374F40F9354F5018E07FD810E07F9
S315000043306313D60019E393C51500B306C44063960C
S315000043409512635CD00605E2630F07101386F6FF2D
S3150000435001E6BA97054481A09305F00F639DB60068
S315000043601304F00FC1A81306F00F6305C40C37063B
S315000043700004518F3686ED45854663CDC50093060C
S315000043800002918EB355C7003317D7003337E000CC
S31500004390B3E6E500B697370700047D8F41CF0504E5
S315000043A01307F00F6306E4223707007E93F6170023
S315000043B07D178583F98FD58FB5A8B1CAB306864018
S315000043C001EC638107209385F6FFC1D51305F00F35
S315000043D0639CA600BA8769B79305F00FE30CB6FE97
S315000043E0B7050004CD8FB6856D458546634DB5008E
S315000043F0930600028D8E33D5B700B397D700B33737
S31500004400F000B366F500B387E600328469B7930619
S31500004410140013F6E60F31E20DE86387071A19CB8D
S31500004420BA97370700047D8F11C7370700FC7D1741
S31500004430F98F054413F77700630D071813F7F70094
S3150000444091466308D718910769A2C9D711DB814441
S31500004450B70700021304F00FADAA1306F00F638727
S31500004460C616BA9785833684F1B7635FD00421E612
S315000044707DDB1386F6FF01E6998F05442DA0930593
S31500004480F00FE38FB6ECED45854663CDC500930688
S315000044900002918EB355C7003317D7003337E000BB
S315000044A0B3E6E500958FB706000433F7D70059D376
S315000044B0FD16FD8EE9A01306F00FE30DC4F63706D0
S315000044C00004518F3686C1B7ADC2B306864015E0EB
S315000044D0638607141385F6FF09E5B307F740AE8434
S315000044E069BF1303F00F639E6600BA871304F00FCB
S315000044F0B9A01305F00FE30AA6FE37050004C98F1D
S3150000450036856D438546634DA30093060002898E6A
S3150000451033D3A700B397D700B337F000B366F300E1
S31500004520B307D7403284AE84BDBF9306140093F61A
S31500004530E60F8DEE0DE491E7814441CFBA87AE8454
S31500004540D5BDE30907EEB386E74037060004758E4E
S31500004550B307F7406DF68147B1CEB687E1BDE39765
S3150000456007EEE30607EEBA87AE84DDBBB386E74007
S3150000457037060004758E05CEB306F740AE84368541
S3150000458036C0012982466D15B396A600634685029C
S31500004590018D050513040002B3D7A6003305A44018
S315000045A0B396A600B336D000D58F014461B5E1FAC3
S315000045B081470144814431A8B70700FCFD17098CE7
S315000045C0F58F8DBDBA8745B5BA87ADB51304F00F23
S315000045D08147370700047D8F11CB05041307F00FC1
S315000045E06301E404370700FC7D17F98F1307F00F0A
S315000045F08D836316E40081C7B70740008144370501
S31500004600807F5E04A607698CA583B240C18F2244D1
S315000046101395F4015D8D924441018280BA873684F8
S3150000462039BF8147E1B737068000135775019307F5
S31500004630F6FF1377F70F9305E007E98F9356F50119
S3150000464063D1E5049305D00963D8E50037050080FA
S315000046501345F5FF3695828033E5C7009307500969
S3150000466063DAE7001307A7F63315E50081CE3305B5
S31500004670A0408280930760093387E7403355E50001
S31500004680F5B701458280511106C422C226C045C530
S315000046909357F54133C4A7001D8C9354F501228529
S315000046A0CD2CAA871305E0091D8D13076009634405
S315000046B0A70221476355F700E1173314F4002604D7
S315000046C05E052580498C1395F401A240418D124464
S315000046D082443101828013079009635DA7009546E5
S315000046E09D8E1387B701B356D4003314E4003334D8
S315000046F08000558C15476356F7001387B7FF3314B0
S31500004700E400370700FC7D1793767400618F91C62D
S315000047103D8891466303D4001107B7060004F98E5D
S3150000472081CAB70600FCFD161305F009758F1D8DAD
S315000047301354370069B78144014451B7511122C25D
S3150000474006C42A84814719CDA9249307E009898FD5
S31500004750130760096341F70221476355A7006115F6
S315000047603314A4002604258013957701A240418DB9
S3150000477012443101828013079009635DF7009306A6
S31500004780B5011547B316D400098FB336D00033549C
S31500004790E400558C15476356A7001307B5FF33147D
S315000047A0E400370700FC7D1793767400618F91C68D
S315000047B03D8891466303D4001107B7060004F98EBD
S315000047C081CAB70700FCFD177D8F9307F009898F13
S315000047D01354370041BF135775011377F70F511163
S315000047E09307170022C226C01314950006C493F738
S315000047F0E70F25809354F50185C7935734001307B7
S3150000480007387604B207A24052072285B1831244C4
S31500004810FE04D98F33E79700BA858244310182803E
S3150000482015EB814765D02285AD22A94763CEA70047
S31500004830AD47898F13075501B357F4003314E400CD
S3150000484013079038098F7DBF930755FFB317F40000
S315000048500144FDB7814719C4935734003707080050
S315000048607604D98F1307F07F71BF1397C50093D6CF
S3150000487045019357970093F2F67F1357D5015D8F45
S315000048809387120093F7E77FFD8193133500C1C725
S31500004890138302C89307E00F63CD6708634360067E
S315000048A0A557634DF30CB707800079465D8F330635
S315000048B06640FD4763C3C702938622C8B397D300F9
S315000048C0B337F0003317D70033D6C300D98FD18F53
S315000048D0014313F777002DC365A0F957B3876740E7
S315000048E013050002B357F70081466306A6009386B8
S315000048F022CAB316D700B3E67600B336D000D58FFA
S31500004900C1BF93166500B336D0000E0793D7D30107
S31500004910558FD98F7DBFB367770063950200B33794
S31500004920F0007DB71303F00F81CB0E07B707000227
S31500004930CDB781471303F00F370700047D8F11CBE6
S3150000494005031307F00F6304E304370700FC7D1724
S31500004950F98F1307F00F8D836316E30081C7B7073E
S3150000496040008145131573013707807FA607798DAF
S31500004970A583C98F1395F5015D8D82808547014317
S3150000498013F7F7009146E309D7FA910775B7814700
S31500004990C9B7C1676375F5029307F00FB3B7A700F0
S315000049A08E071567930600029D8E3355F500930713
S315000049B087EC3E95034505003385A6408280370780
S311000049C00001C147E36FE5FCE147E1BFE1
S315000049CC645F63616368655F666C7573682829202C
S315000049DC2532782025640A00253038783A200000E4
S315000049EC2530387820000000253032782000000071
S315000049FC72766D6F6E206C6F616465642E20253443
S31500004A0C2E3166204D487A0A4E70203D2025640AC8
S31500004A1C0000000072766D6F6E242000200A0000E4
S31500004A2C20777269746520696E6320706174746591
S31500004A3C726E20746F206D656D6F72792040202523
S31500004A4C782025642077640A00000000666C757374
S31500004A5C682025640A000000636C65616E2025647D
S31500004A6C0A0000006F75743A20202538780A000079
S31500004A7C696E3A2020202538780A000066696C7425
S31500004A8C3A202538780A0000626961733A20253885
S31500004A9C780A00007175616E743A202538780A0020
S31500004AAC6D6F6E69203A2025640A00007374616785
S31500004ABC6500000074726967207374616765203A3B
S31500004ACC2025640A00000000253878203A2025307D
S31500004ADC38780A002532643A2025352E3266202590
S31500004AEC252025342E3266206D730A0020202020C6
S31500004AFC2020202020202025342E3266206D732085
S31500004B0C2072756E3A25342E3266206D73207872BB
S31500004B1C64793A25342E3266206D730A0000000043
S31500004B2C6800000020202020642F647720207B6101
S31500004B3C6464727D0A202020207720207B406164EB
S31500004B4C64727D207B646174617D0A202020207054
S31500004B5C202020616464722D2D0A202020206220E2
S31500004B6C207072696E742062617365206164647270
S31500004B7C0A20202020662020636163686520666C0D
S31500004B8C7573680A202020206320206361636865A2
S31500004B9C20636C65616E0A202020206520207072CF
S31500004BAC696E7420656C61707365642074696D65DB
S31500004BBC0A20202020722020726573657420656C93
S31500004BCC61707365640A2020202073746167652008
S31500004BDC7B6E7D2020747269672073746167650A29
S31500004BEC000000002A2A2065786974282920746937
S31500004BFC6D65723A2025640A00000000442000000E
S31500004C0CA21D0000A21D0000A21D0000A21D000096
S31500004C1CA21D0000A21D0000A21D0000A21D000086
S31500004C2CA21D0000A21D000016200000FC1F0000A3
S31500004C3CA21D0000101F0000A21D0000A21D0000F6
S31500004C4CA21D0000A21D0000A21D0000A21D000056
S31500004C5CA21D0000A21D0000A21D0000A21D000046
S31500004C6CA21D0000A21D0000B01E0000A21D000027
S31500004C7C50200000A21D0000A21D0000801E000096
S31500004C8C2533643A2025730A000000001B5B304B69
S31500004C9C000000005C260000B826000096260000E6
S31500004CAC5C2600005C2600001C260000AA260000DC
S31500004CBC5C260000C2270000222600003A260000CF
S31500004CCC5C260000B8270000222600005C260000A7
S31500004CDC5C2600005C2600005C2600005C260000BA
S31500004CEC5C2600005C2600005C2600005C260000AA
S31500004CFC5C2600005C2600005C2600005C2600009A
S31500004D0CDC2600000020202020202020202028281F
S31500004D1C2828282020202020202020202020202069
S31500004D2C20202020208810101010101010101010A9
S31500004D3C10101010100404040404040404040410D9
S31500004D4C1010101010104141414141410101010167
S31500004D5C0101010101010101010101010101010131
S31500004D6C101010101010424242424242020202023D
S31500004D7C0202020202020202020202020202020201
S31500004D8C10101010200000000000000000000000B1
S31500004D9C0000000000000000000000000000000001
S31500004DAC00000000000000000000000000000000F1
S31500004DBC00000000000000000000000000000000E1
S31500004DCC00000000000000000000000000000000D1
S31500004DDC00000000000000000000000000000000C1
S31500004DEC00000000000000000000000000000000B1
S31500004DFC00000000000000000000000000000000A1
S31500004E0C0000000000000000AC390000AC390000C6
S31500004E1CC4390000A6390000A63900005C3A00002F
S31500004E2CC4390000A63900005C3A0000A63900001F
S31500004E3CC4390000A2390000A2390000A2390000D2
S31500004E4C5C3A00007E3F0000DE3F0000863F00001B
S31500004E5CDE3F0000D23F0000DE3F0000863F000030
S31500004E6C7E3F00007E3F0000D23F0000863F0000E0
S31500004E7C663F0000663F0000663F00008A3F000068
S31500004E8C7842000078420000904200007442000014
S31500004E9C74420000D64200009042000074420000AA
S31500004EACD64200007442000090420000724200009C
S31500004EBC7242000072420000D6420000000102025B
S31500004ECC0303030304040404040404040505050590
S31500004EDC050505050505050505050505060606066C
S31500004EEC0606060606060606060606060606060650
S31500004EFC060606060606060606060606070707073C
S31500004F0C070707070707070707070707070707071F
S31500004F1C070707070707070707070707070707070F
S31500004F2C07070707070707070707070707070707FF
S31500004F3C07070707070707070707070708080808EB
S31500004F4C08080808080808080808080808080808CF
S31500004F5C08080808080808080808080808080808BF
S31500004F6C08080808080808080808080808080808AF
S31500004F7C080808080808080808080808080808089F
S31500004F8C080808080808080808080808080808088F
S31500004F9C080808080808080808080808080808087F
S31500004FAC080808080808080808080808080808086F
S31100004FBC08080808080808080808080883
S31500004FC801000000E8170000281800000000000093
S31500004FD800000000C45200002C5300009453000047
S31500004FE800000000000000000000000000000000B3
S31500004FF800000000000000000000000000000000A3
S315000050080000000000000000000000000000000092
S315000050180000000000000000000000000000000082
S315000050280000000000000000000000000000000072
S315000050380000000000000000000000000000000062
S315000050480000000000000000000000000000000052
S315000050580000000000000000000000000000000042
S315000050680000000000000000000000000000000032
S315000050780000000000000000010000000000000021
S315000050880E33CDAB34126DE6ECDE05000B000000E6
S315000050980000000000000000000000000000000002
S315000050A800000000000000000000000000000000F2
S315000050B800000000000000000000000000000000E2
S315000050C800000000000000000000000000000000D2
S315000054000000000000001040000000A09999A93F8C
S3150000541000007A440000E1470000003F6F12833A23
S31500005420BD3786350000C8420000803F0000403F7F
S31500005430A69BC43BCDCCCC3DCDCC4C3D0000004022
S31100005440D84F000020BCBE4CD84F000026
S70500000000FA
