S00C000072766D6F6E2E6D6F7443
S31500000000975100009381017C17010100130181FFC4
S31500000010970200009382021F739052301385C184A9
S3150000002097F50000938505E2898DEF20003502459E
S315000000304C000146392CEF10204B9302D00573007B
S31500000040000001A001000000000000000000000008
S31500000050000000000000000000000000000000009A
S31500000060000000000000000000000000000000008A
S31500000070000000000000000000000000000000007A
S31500000080000000000000000000000000000000006A
S31500000090000000000000000000000000000000005A
S315000000A0000000000000000000000000000000004A
S315000000B0000000000000000000000000000000003A
S315000000C0000000000000000000000000000000002A
S315000000D0000000000000000000000000000000001A
S315000000E0000000000000000000000000000000000A
S315000000F000000000000000000000000000000000FA
S3150000010000000000000000000000000000000000E9
S3150000011000000000000000000000000000000000D9
S3150000012000000000000000000000000000000000C9
S3150000013000000000000000000000000000000000B9
S3150000014000000000000000000000000000000000A9
S315000001500000000000000000000000000000000099
S315000001600000000000000000000000000000000089
S315000001700000000000000000000000000000000079
S315000001800000000000000000000000000000000069
S315000001900000000000000000000000000000000059
S315000001A00000000000000000000000000000000049
S315000001B00000000000000000000000000000000039
S315000001C00000000000000000000000000000000029
S315000001D00000000000000000000000000000000019
S315000001E00000000000000000000000000000000009
S315000001F000000000000000000000000000000000F9
S31500000200797106C02AC22EC432C636C83ACA3ECC56
S3150000021022CE26D016D21AD41ED60A85F32520342D
S3150000022073261034EF10003282401245A245324642
S31500000230C2465247E2477244825492522253B25304
S31500000240456173002030000000000000000000003F
S3150000025000008327000F130141FD06D422D226D0C9
S3150000026099E7B7E7F505938707102328F00E0325CE
S31500000270000FEF40600C2A8403A50181A28523A20A
S315000002808184EF30007183A54181AA8722853EC60D
S31500000290EF30207083A5818102C00144EF30803E9B
S315000002A0EF303078EF10803983A5C18103A54184F2
S315000002B0EF30F021EF30F076EF10601D8147130527
S315000002C0206DEF10E0330545EF102018C17703A627
S315000002D0C73183A5018203A5418432C2EF30301FA6
S315000002E01246AA8511651305455FEF10D07B0545BB
S315000002F0EF106017056513058535EF20C00D83A740
S3150000030041823EC89387818B3ECE9387C18B3ECC7C
S3150000031081471305206DEF10A02E85671385E79F93
S31500000320EF10C02E916713858761EF20A021AA8464
S315000003302945EF10D0029167938507622685EF1055
S31500000340B07C03470500930740066396E7028347A0
S31500000350150095E39167938507620145EF10D07A02
S3150000036011C541468145EF20B0092A842285814581
S3150000037005292A8471BF83470500930640066390CA
S31500000380F6048346150013067007631AD6028346E1
S31500000390250095E69167938507620145EF10D076B3
S315000003A011C541468145EF20B0052A84EF1060153E
S315000003B085452285F5262A84EF10E01391BF930622
S315000003C0D006639FF604834715009306700763996A
S315000003D0F60483472500B304F040B9E3916793859B
S315000003E007620145EF10507211C541468145EF2065
S315000003F030012A849167938507620145EF10D0701A
S315000004004146630C05128145EF20807F2A866346AC
S31500000410A0129167A28513854762EF10D068CDBD03
S3150000042093076006639DE7008347150089EBED247B
S315000004309167AA8513850765EF10F066D1BD93070E
S3150000044030066390E7028347150081EFC1773D4789
S315000004502380E718916781451385C765EF10B0645F
S3150000046045BD93072006639AE70483471500B1E765
S31500000470C17483A54430916713858766EF10B06217
S3150000048083A58430916713854767EF10D06183A5F4
S31500000490C430916713850768EF10F06083A50431B7
S315000004A091671385C768EF10106083A54431916783
S315000004B013858769EF10305FA1BD9307D006639A55
S315000004C0E70483471500B1E7916793850762014505
S315000004D0EF10906301C941468145EF206072C177F4
S315000004E023A0A7329167938507620145EF10D0617B
S315000004F001C941468145EF20A070C17723A2A732EA
S31500000500C17783A5073291671385476AEF10B05903
S3150000051001B5930700076399E702834715008DE746
S31500000520824703A6C7FF9384C7FF9167A6851385F5
S31500000530076BEF10505726C0E1BBA28784C3850422
S315000005409107E3CDC4FEF1B5930770076395E70401
S3150000055083471500A9E39167938507620145EF106C
S31500000560B05A630A05128346050013070004414684
S3150000057081456385E612EF20A06882472A8688C3F4
S31500000580824491671385076BA685EF10D051938738
S3150000059044003EC0B5BB93072007639AE700834734
S315000005A0150091E723A8018423AA018495B3930734
S315000005B050066394E70C83461500B304D040639E4F
S315000005C0060A03A7818563420710F247E2460A0737
S315000005D03E833386E60001453E871C4311073E9560
S315000005E0E31DE6FE1AC2EF303055124322CA2AC472
S315000005F026849A8488409104EF301054B2452AC26A
S31500000600EF30E06C1247C245AA863A8536C2EF3013
S31500000610006CA245EF30E037924691672A86A285A4
S315000006201385C76BEF10304803A781850504E35394
S3150000063087FC524403A50185EF30B044B244A68539
S31500000640EF30E068AA8603A5418536CAEF307043CD
S31500000650A685EF30C067A2452AC22685EF302067FF
S31500000660D2461246AA8511651305456DEF10B043B3
S3150000067023A8018423AA018461B993078006E3991C
S31500000680E7C883471500E39507C891671385877008
S31500000690EF10E04FB5B982479043DDB50505EF2071
S315000006A020561167AA87930507620145BE843EC09E
S315000006B0EF10904509C941468145EF2060548247B5
S315000006C02A8688C375BD904065BD930700003EC469
S315000006D095B783A70186930640068507B3F7D70229
S315000006E023A0F18683A701868DE703A7C18501456F
S315000006F0050723AEE18403A7C185058B09CB83A734
S31500000700C185A9461547B3F7D7026375F7006F0091
S31500000710905582806F007053511122C226C006C4C4
S31500000720C17741572380E7188144417429A0EF001F
S31500000730907A850409ED83470418E207E187E3C848
S3150000074007FEA24012442685824431018280EF10C2
S31500000750E053C17783C507181165268693F5F50F13
S315000007601305455CEF103034A240124426858244BE
S3150000077031018280C1773D472380E7180145828099
S31500000780511106C4EF00D05503A7C184A24023A689
S31500000790A184198D31018280414681456F204046F2
S315000007A01111130705019307051106CC22CA26C8A5
S315000007B02AC62EC43AC03EC28247138407FF9167F9
S315000007C01385C75DA285EF10102EA247A1C39164C1
S315000007D00C401385445E1104EF10F02C8247E31998
S315000007E0F4FE82472945C1073E843EC0EF102037FC
S315000007F01247E313E4FC2945EF106036B247E240A6
S315000008005244C2441385071071018280A28483C5B5
S31500000810040091671385C75EEF10F02882478504B0
S31500000820E397F4FE9304E00503450400050413076B
S3150000083005FE1377F70F63F4E4001305E002EF10EB
S3150000084000328247E312F4FE69BF6358B000814765
S315000008501CC185071105E39DF5FE82803111C17724
S3150000086022C606C803A4C73126C4EF00704723A6D4
S31500000870A1848327401123ACF18489E723A801844E
S3150000088023AA018403270010C1779302F4FF23A251
S31500000890E7300327401023A4E7300327801023A660
S315000008A0E7300327C01023A8E7300327001123AA47
S315000008B0E730832780118323C012032700133AC031
S315000008C003274013832480130323C0133AC2B3843F
S315000008D06402A692B3C282022322501499E323280B
S315000008E000144176930700121305062E9305001790
S315000008F094433387A700910714C3E39BB7FEB387DE
S315000009005400FD17B3C75702024723289644B38302
S31500000910E3021247B383E302232A7644232CF644E8
S3150000092063578002B7C7FF3F938787113E940A0437
S31500000930130606460147B34767021106B366670208
S31500000940C2071697D58F232EF6FEE316C4FEC1778F
S315000009503D472380E718C24032441307102023A0E6
S31500000960E730A24451018280511106C422C226C03A
S315000009704177130600048347071893F7F70FE39CA4
S31500000980C7FEC1572300F718230007189306000473
S3150000099041778347071893F7F70FE39CD7FE0325A4
S315000009A0074083A7418583A60185AA9723AAF184D8
S315000009B00327474003A48185369723A8E184EF00E7
S315000009C0303203A6C1840A041387818B83A68185EE
S315000009D022973306C54010C323A6A1841307E00758
S315000009E0A6876354D7009306E007A2401244850603
S315000009F023ACD184232E0010824431018280511110
S31500000A0022C241748327043006C493F7071089EB8A
S31500000A1083274008858B81EFA240124431018280F2
S31500000A20A1372320043083274008858BF5D73D3531
S31500000A30A2401244232200083101828003A7C1820A
S31500000A401301C1D8232681260144232491263AC2C4
S31500000A50232811262AC4938481AB2287B1A8C844CF
S31500000A603AC0EF30C0170247938681AB9317570001
S31500000A70B697635DA00283A3440083A2840003A308
S31500000A80C4008848CC48904CD44C23A0877823A235
S31500000A90777823A4577823A6677823A8A77823AA6C
S31500000AA0B77823ACC77823AED778050793840402BA
S31500000AB093878123638EF40080409245E35104FAC4
S31500000AC093175700138781ABBA977D5723A0E77812
S31500000AD0A2476384077213848123996793878727C4
S31500000AE002C302C10146BECC1305C00329A0232CB4
S31500000AF0D7E0630DA6021C44E6440C4013F317002E
S31500000B0013172300BC143E97832687E193174300EF
S31500000B10B38767408A07B6978A07A69723A0C7F0C8
S31500000B201304040285060506E3D305FC83A7818327
S31500000B30396618013EDA83A7C183BAD2BAD43EDC3D
S31500000B409386C1869387C186BEDC93078697BEC807
S31500000B50BECA996793878717BED69D679387878F87
S31500000B60B6C682DA82D8BEDEA6579C43635FF0180B
S31500000B706657D65676561843B6978A07BACE36972C
S31500000B80C6561607B296B6C4996693868617B69762
S31500000B90BED0B96793878797BA973ED8B657BEC077
S31500000BA08647138781AB9C439607BA9703A70779B5
S31500000BB003C5C7793ACA03A7477983A787793ACC89
S31500000BC03ECEEF306077F6472AD06356F01283A701
S31500000BD001833ED683A741833ED283A781813ED43B
S31500000BE0A6473EC4D6473EC00244930700003EC215
S31500000BF00C480844EF201029AA855245EF300030F2
S31500000C004C48AA84484422C037040080EF2090272D
S31500000C10AA8562451344F4FFE18CEF30202E02478B
S31500000C20AA87F245084F7D8CEF20B0560247AA8767
S31500000C303EC60345C701EF30C064AA850255EF30B2
S31500000C40E02BEF30005E9357F5413D8D1D8D31153C
S31500000C50EF302063930500002AC8EF205078C24782
S31500000C602A87B2553E856355E000EF3040062AC21A
S31500000C70A2852685EF2010219255AA872685BE8457
S31500000C80EF20F07582472A87D255938707023EC028
S31500000C9083A7818222856349E000EF2050743325C3
S31500000CA0A000EF30005EAA87BE852685EF20901D46
S31500000CB0B244A2552A842685EF20F0792A87E25588
S31500000CC083A78182268563490700EF20507133256B
S31500000CD0A000EF30005BAA87BE852285EF20901A20
S31500000CE09245EF20301AA247425788C391073EC467
S31500000CF08247E39BE7EE264786471307070FBAC4EA
S31500000D0006579107BEC0E39DE7E8A656465791678A
S31500000D109106B6D4B656938707843E979386060FF8
S31500000D20B6D6D6469D67BAD893860678B6CAD6563C
S31500000D30938707089386C603B6DAE6569106B6DCAD
S31500000D40E314F7E283A7418382C402DABECE956735
S31500000D5003A707FC83A747FC3ADC3EDE956703A79B
S31500000D6087FC83A7C7FCBAC0BEC293874186BED0A4
S31500000D70F6573ECA9967938787353ECCB9679387FE
S31500000D8087973ECEB6471657FD56844318433C0117
S31500000D903AC4139724003386E7006354905094C3F3
S31500000DA09107E39EC7FED246BC1A3ED036973AD28A
S31500000DB036C83EC626D4B2474244054723A007009C
S31500000DC0A2470C4085446359F70222872E84832666
S31500000DD0070FA2851307070F36853AC036C2EF20E4
S31500000DE09067024763560500B247924684C336842D
S31500000DF0A2478504E39DF4FC3247C24711073AC671
S31500000E00125791073EC8E398E7FAA25402530144E9
S31500000E10A682A2841A8402579396240081472286CA
S31500000E2036C82684BE84638684000C421C436383D2
S31500000E30F53885041107E39854FE9304140013044F
S31500000E404600E39A54FCA247968463CF07006247A4
S31500000E5022468147FD5614C385071107E35DF6FE5A
S31500000E60BC1A3ED0635B90088252B70700800144EB
S31500000E7093C7F7FF26C63EC8A284168401A823207E
S31500000E809300B2478504110463D8F406724793971A
S31500000E905400B306F7001C406247139327003A93A9
S31500000EA01AC23EC0E3CF07FCC247884A7D8DEF30A9
S31500000EB040526256F256EF20A03406469646EF1090
S31500000EC01055EF30405A8247524793964700B387F2
S31500000ED0F6409207BA9793962400B6978C43EF2074
S31500000EE010501243E34DA0F8FD572320F300B247FC
S31500000EF085041104E3CCF4F8BE84A2476356F03AA5
S31500000F002647A247D25593122700BA97664793966B
S31500000F104500B385B6401306072C1967B6CA8A077B
S31500000F2013078735E24646433385E70016962AC2FD
S31500000F308A0598429106B387E50096079A97634318
S31500000F400700984318C21106E315D5FED647525737
S31500000F508143A6D43387E740996793878717BE9264
S31500000F6013132700E24709A8124723A0C5E29107F9
S31500000F70850391026388E70E9843464693952300BE
S31500000F80B304E300B414960433049600B69503A69E
S31500000F900200E34B07FC1606138581AB0C40329525
S31500000FA02AC063C805243ED4824714480C4403A7CC
S31500000FB00779232204001AD83A851ED616D23AD0CB
S31500000FC036C6EF20B073B246B685EF203073F645CD
S31500000FD0EF20F04FB246B685EF20C06A82475448EC
S31500000FE04C4403A6477908C836C6328532C8EF2076
S31500000FF0F070B246B685EF20707083A54183EF206E
S31500001000104DB246B685EF20E0678247144C424643
S315000010100257AA8503A5877950C44CC818C4B6855B
S3150000102036C6EF20B06D83A54183EF20504AB24605
S31500001030B685EF20206582479252425383D6C77900
S315000010400387E779B9671386879808CCB294A257C5
S315000010502396D400230FE40012479107B25391025E
S31500001060E39CE7F0A654A247D2565647B014158F14
S315000010700A073E9793972300B29766460A07FD56DE
S31500001080329723A0D7E22320D70E8657224798C34C
S3150000109063599002A6471146FD55B386F400B96719
S315000010A0938787979606BE96F247D8430507D8C317
S315000010B06355E6008CC323A2070093870702E396D5
S315000010C0F6FEF247014601479305C0033285634E9B
S315000010D09710B6469304170023A2070084C2FD5654
S315000010E094C393162500B014B29603A606E293069F
S315000010F015003685138481AB93165600A296634C71
S31500001100060403A4467803C6C67983A3067980C37A
S315000011102300C1001304000083A2467903A3867945
S3150000112003C6D679C0CB83C6E67980CB03440100DB
S3150000113023A2070023A4770023A6570023AC670049
S31500001140238E8700A38EC700238FD70005079387BA
S315000011500702E31EB7F65257D647C646998F8A0747
S315000011601387F4FFBA979607B6979C4363D4070094
S31500001170B64798C3B64752479107BEC696579107DA
S31500001180BED2F247938707783ECE86579107BED0E8
S31500001190A6479387C703BEC4E2479387070F3ECC93
S315000011A0916793870784BA973ECAD257EDE385477E
S315000011B03EDAC9BE3AC09397450052478D8F9207D3
S315000011C0BA9742479395240016C63385E700AE9733
S315000011D08C43084132C2EF20102802471246B24221
S315000011E0E35905C4FD571CC3A9B19443E3D006F6E1
S315000011F0CDBD0326457810C07DB39382C18639667E
S31500001200138481239304869723A2020023A002005D
S3150000121013068697930304787D55A5A00C440323F3
S31500001220440013040402139725001697144393975A
S3150000123045008D8F8A07B697850614C3032704FFDA
S315000012409607A69798C713070000D8CB98CB032715
S3150000125084FF832544FF23A0670098CF0347C4FF7C
S3150000126023A20700CCC7238EE7000347D4FF13064B
S315000012700602A38EE7000347E4FF238FE700638897
S3150000128083001C4008C22320A678E3D907F88320F0
S3150000129001270324C1268324812601451301412702
S315000012A08280A247E3D507BA525781438147120786
S315000012B0BACA5DBB611122C226C0404104418323E4
S315000012C085008322C500032305015049144D484D6E
S315000012D093975500138781ABBA9784C3C0C323A4E1
S315000012E0770023A6570023A86700D0CB94CFC8CF9A
S315000012F085059307B00363C6B70096052E97FD577D
S315000013001CC3124482440145210182806FF00FF311
S315000013101383418693922500AE87B3055300984107
S315000013206356E002139747001D8F9967120793874C
S315000013308753BA97AA86014790430507910790C23B
S3150000134090419106E34AC7FE0A073A95FD571CC12C
S315000013501693032503008280511122C206C426C0BB
S31500001360196421A08327400C81EBB52665DDA240D8
S315000013701244824431018280930484279387044A6D
S315000013802320F00E0325800C8326000C138681ABE8
S31500001390938781AB130606789D8E3387F600184334
S315000013A0910723AEE7FEE31AF6FEEFF02FE99385E9
S315000013B0418688416354A0069387042C13132500A5
S315000013C01387444A3306F300944391071107232EEB
S315000013D0D7FEE31BF6FE9387444A9A977D57CC4186
S315000013E098C323A0A44A6354B0049387043B13957F
S315000013F02500138744593386A700944391071107A4
S31500001400232ED7FEE39BC7FE93874459AA977D57A1
S3150000141098C323A8B4582322000C81BF9387444A5B
S315000014207D57CC4198C323A0A44AE340B0FC9387E0
S315000014304459F1BF03C5C18982801375F50F238E08
S31500001440A188C1772380A700828083C6C18985478A
S315000014503395A700558D1375F50F238EA188C17797
S315000014602380A700828083C6C18985473395A7005C
S315000014701345F5FF758D238EA188C1772380A700BC
S315000014808280C17703C507001375F50F828023A4F8
S31500001490A188E17681458CC20146D0C203A6818827
S315000014A09357F64190C6DCC623AC01889307000823
S315000014B073A0473082809307000873B0473082805C
S315000014C0E176014798C28147DCC203A6818893571B
S315000014D0F64190C6DCC69307000873A047308280A9
S315000014E0E1778843CC43828083A581891165130502
S315000014F0C57A6F00505B85679387078073A0473076
S31500001500828085679387078073B04730828023A6E1
S31500001510A188828083A74189F5DF23AA018882807A
S31500001520635BA000814683A74189F5DF23AA018872
S315000015308506E31AD5FE828023ACA188828003A5A6
S3150000154081898280511106C422C2F327403493F761
S315000015500708BDC783C7C1894177E17593E70708C7
S31500001560238EF1882300F70083A781889045D44510
S3150000157013D7F7413385C700B337F5003697B386DF
S31500001580E70083A7418888C5D4C591C3829783A7FE
S31500001590018891C3829783A78189850723ACF18847
S315000015A0054723AAE1889307000873A0473083C73D
S315000015B0C189417793F7F707238EF1882300F70057
S315000015C0F32740341397470163460700A2401244AD
S315000015D031018280952883A7C18791C3829783A70B
S315000015E0818791C3829783A7418791C38297856735
S315000015F09387078073A04730A2401244310182804E
S3150000160023A2A188828023A0A188828023AEA186FE
S31500001610828023ACA186828023AAA186828023A011
S315000016200188828023A20188828023AE018682807F
S3150000163023AC0186828023AA0186828042054185E9
S31500001640C1772391A7028280511126C006C422C207
S31500001650C17403C414020545CD3B1374F40F1188FD
S3150000166015C483C7F1893D6713078787850793F7F5
S31500001670F70F3E9703470700A38FF1882380E40204
S3150000168003C7018A83C7F1896308F7001244A240A1
S31500001690824405453101C1BBA38004021244A24025
S315000016A0824405453101C1B3C17683C7160213874B
S315000016B01602858BFDFB03C50602834707001375DB
S315000016C0F50F858B81EB85462300D70083470700FE
S315000016D0858BFDDB8280C17703C517021345F5FFB5
S315000016E005898280417783471702898BEDFF2300A6
S315000016F0A702828003C7018A83C7F1891D46998F95
S3150000170093F7F70F6377F600417683471602898BC6
S31500001710EDFF0507BD671377F70F93878787BA979E
S315000017202380E18A2380A7002147C177A380E702AF
S31500001730D9B3328515CEB382C500C176054385057A
S3150000174083C7160213871602858BFDFB03C60602A6
S31500001750834707001376F60F858B99E7230067000A
S3150000176083470700858BFDDBA38FC5FEE39955FCF8
S315000017708280411106C622C426C232C011CAAE8476
S315000017803384C50003C504008504AD37E39C84FE9D
S31500001790B240224402459244410182802A87328522
S315000017A011CE3383C5001C4385059386170014C3E9
S315000017B083C70700A38FF5FEE39765FE82802A871D
S315000017C0328511CE3383C5001C43850593861700E9
S315000017D014C383C6F5FF2380D700E39765FE828096
S315000017E0130181FC9377870006DA22D826D63EC6F7
S315000017F02AC02EC236CA63900712634006129305AA
S31500001800A1020145A9472543B376F602FD15B2822A
S315000018102A84B383A740050593860603A380D500D3
S315000018203356F60263705310E310F5FE9247824674
S315000018302ACC9C43884202C602C89305F10152464F
S3150000184029CA93761700B1E6131427006247418828
S3150000185013040402635FC7021374F40F22C4B28434
S315000018602E8422470546A285A30FE1008297D24720
S31500001870FD14338797406358A00E824692478842EC
S31500001880B2469C433697E246E39DD4FCA2853AC60F
S3150000189036CA42470010B304E40029A09247024723
S315000018A09C43084383C6040005462EC4A30FD100FB
S315000018B0829742478547818F998F3247A245BA97CB
S315000018C0A69785046351A00A1307B102E398E4FCC6
S315000018D05247E246930400023304D7403E9463D550
S315000018E0E60222C63E849247A30F9100054698431E
S315000018F082472EC4050488430297A2456355A00675
S31500001900B247E39287FEA287D2504254B2543E8534
S3150000191013018103828002C6DDB585473306C040C8
S315000019203EC6F1BD824692472ACC8842B2461EC8C0
S315000019309C4381D6937647009DCE9306D0029305AD
S31500001940F101A30FD10005463ACC2EC48297635C01
S31500001950A00002479247A24508439C43624793066C
S31500001960240036CCE9BDD2504254FD57B2543E85D0
S31500001970130181038280C246701002C6FD1636C866
S31500001980B2961306D002238AC6FE9305F101C1BFA3
S31500001990130141FC22DA2AC02E8436CC06DC26D876
S315000019A03AC63C109D46A1457D551377F600A383A4
S315000019B0E700118236873383D54009C6FD16FD1729
S315000019C0E395A6FEE2473AD01ACE91C73246137780
S315000019D016003AC445CF02C4930771023EC2B2470D
S315000019E036C6898B93B71700B307F04093F7070203
S315000019F0938717043ECA3C10B384D700A1073EC89C
S31500001A0083C70400254792450546138567FF138360
S31500001A1007036375F700D2473303F50002471C40FE
S31500001A20A30361020843829738108547998F32478E
S31500001A30998F2247BA97A6978504635EA008424706
S31500001A40E31097FC0257E2469304000261173697AB
S31500001A503E973AC672476351D708A2863E848247AC
S31500001A60984292458843A3039102054636C40297DD
S31500001A70A24605046351A006B247E312F4FEE25003
S31500001A8052543245C2541301C10382809314260076
S31500001A90C18893840402E351F3F493F7F40FE2440C
S31500001AA03EC4930771023EC236C88247184092452B
S31500001AB08843A2470546FD14A303F1020297635C1F
S31500001AC0A000E24733879740F247E390F4FEC24610
S31500001AD03AC43ECC29B7FD57E25052543EC6324571
S31500001AE0C2541301C1038280411122C49C452A8439
S31500001AF0884106C6A30181000546930531008297F9
S31500001B006357A000B24022852244410182807D5461
S31500001B10D5BF83470500B1C3411122C426C206C6FC
S31500001B20AE841304150098448840A301F1000546CD
S31500001B309305310005040297635BA0008347F4FF19
S31500001B40FDF3B24022449244014541018280B240F5
S31500001B50224492447D5541018280014582809567E9
S31500001B604111938787B822C498472A84884306C6BA
S31500001B70A301810005469305310002976357A00033
S31500001B80B24022852244410182807D54D5BF311165
S31500001B9006C822C626C483470500B1C715671304C5
S31500001BA0150093057100930487B894448840A303F5
S31500001BB0F10005462EC08296824505046355A000B5
S31500001BC08347F4FFFDF39C4488402947A303E100C3
S31500001BD005468297A947635EA000C2403244A244EC
S31500001BE03E8551018280156793057100930487B87D
S31500001BF0D9BFFD57DDB73386C50203A34600AA85C4
S31500001C00884202833386C50203A38600AA858842DA
S31500001C1002835C410841411106C605469305310021
S31500001C2082976357A00003453100B240410182808C
S31500001C307D55E5BF211106CA22C826C62AC26355AC
S31500001C40B004B307B500B2842A843EC021A08247FF
S31500001C506302F402D840884005469305B1000504A6
S31500001C6002976351A0020347B100A947A30FE4FE00
S31500001C70E31FF7FC124523000400D2404244B2445D
S31500001C80610182800145D5BF1244EDB79567938700
S31500001C9087B8D8438843411106C6054693053100E7
S31500001CA002976357A00003453100B240410182808C
S31500001CB07D55E5BF1301C1FB86C022DE26DC03C7C6
S31500001CC0050032C2630D0752AE87AA84138415003D
S31500001CD002C0014393065002630CD7029C4488401D
S31500001CE02304E10205462C108297635FA00EA287AB
S31500001CF0054313841700824603C707009A9636C029
S31500001D0071FB864072540245E254130141048280FD
S31500001D1003C717009306C0066301D70E9306D002C9
S31500001D206302D70E930600036307D706890781432C
S31500001D30130607FD1375F60FA5460144A54563E096
S31500001D40A60203C7070093162400369406043294AD
S31500001D50130607FD9376F60F8507E3F4D5FE130603
S31500001D60E00281466305C70A13068007E363E6F8C7
S31500001D70130670056376E602130787FA1377F70FE3
S31500001D8013060002E367E6F611660A071306467CA9
S31500001D9032971843028703C7270091438D0749BF2F
S31500001DA06302072693065002E315D7F4944488404D
S31500001DB02304E10205462C103EC482966356A00217
S31500001DC0A24705433DB73EC492471E879043A2866D
S31500001DD0938584002685138447005D3EA2472A83A7
S31500001DE022C27D57E317E3F086407254FD573EC08A
S31500001DF00245E25413014104828003C72700814350
S31500001E008D073DB703C7270085438D0715B703C761
S31500001E100700A5458507130607FD1375F60FE3E5CD
S31500001E20A5F4254503C7070093952600AE968606BA
S31500001E30B296130607FD9375F60F8507E374B5FE94
S31500001E4025B73EC4924713E783009043A286938545
S31500001E5084002685138447006132A2472A8322C262
S31500001E6049B71247084311073ACA2AC8630F04182C
S31500001E7013F313001AC2631603383EC6C5212AC4DB
S31500001E80B24712436359853E2287341022C636C2B2
S31500001E9026843ECCBA841444084092459307000237
S31500001EA02304F10205468296E350A0F4B247FD14DE
S31500001EB033839740A247E39097FE2687E247A284A2
S31500001EC03A84B1A212461842110632CC638A06340D
S31500001ED08145054513162500329585050605E39BC4
S31500001EE0D5FE36CA1EC83EC63AC2EF208039124712
S31500001EF02A86930500003A853AC432C2EF10B055DF
S31500001F0012462247B247C243D2466341052CB285E8
S31500001F103A853EC81EC636C4EF10705B83A5818124
S31500001F20EF104076EF20E02FA246B243C24702C22E
S31500001F303147158F4C18B146B142A94022C43366C9
S31500001F4015023383D2403684FD161306060323801A
S31500001F50C50033451502638BE614FD15EDF22244E8
S31500001F60130723003ACA79576307041A93F6130036
S31500001F7036C66392061A5246A28693057102635FBD
S31500001F80861822C43AC826843ECEB6841844084031
S31500001F9093070002A303F10205462EC20297E355FA
S31500001FA0A0E4A247FD14924533879740D247E39FAA
S31500001FB0F4FC3AC6A2844247F247524485A23EC484
S31500001FC092471E87904359B53EC49247984488402D
S31500001FD0804305462C10230481020297924713740E
S31500001FE0F40F13874700A247E350A0E02283635310
S31500001FF0800005433AC2F5B93EC4924713E7230071
S315000020009043F1B33E84FD17FDB101430147C2463B
S3150000201083C5060093831600638A052430100507DE
S3150000202022CC1AC832C226833AC61E849E843ECE6D
S3150000203083278300032503002304B1029245054646
S315000020401AC482972243E351A0DAC2473247834536
S3150000205004008507058F858F2297A2970504E9F965
S3150000206062443E869A84F24763598720329422C698
S315000020703AC426843EC8B284184408409245930662
S3150000208000022304D10205460297E35FA0D4B247BB
S31500002090850433879740A247E3C0E7FEC24752470D
S315000020A02683A2843AC213841700B1B13818BA96AF
S315000020B0A2851306E0022388C6FE1387E5FF2244A5
S315000020C0930623006351E01C1306330032CA2946E7
S315000020D0B365C5023345C5023018938505033A96A4
S315000020E02308B6FE630F05163410D2423386E60087
S315000020F0294331A8B36665027D16938512003345E0
S315000021006502938606032300D6004DC1AE827D1775
S3150000211075F316CA91BD02C6930571023410338356
S31500002120E60022CE36C226843AC89A843ED083C6BA
S3150000213004001C440840A303D10205462EC482971E
S31500002140A245E353A0CA12478547998F4247998F04
S315000021503247BA97A697130751038504E31997FCEC
S315000021605247A2847244BE8682573303E4403693B4
S31500002170635C870E26841AC4B6843EC6184408409B
S3150000218093070002A303F10205462EC20297924569
S31500002190E35CA0C4A2478504E392F4FE3E83B24703
S315000021A0A2846247138417003AC2B1B616CA924691
S315000021B0B5C67D173418BA961306D0022388C6FE14
S315000021C0D246890636CA4DB303A6818237050080FA
S315000021D0B285398D3EC61EC436C2EF10502F83A578
S315000021E08181EF10204AEF20C003924605473AC28C
S315000021F0A243B247E39E06D23ACA3147C9BD02C0DE
S3150000220009B6424701438345070093031700014778
S31500002210E39605E03410014636C289BD2ECAA9B33D
S315000022203A85930500003EC81EC636C43AC2EF1072
S3150000223090221247A246B243C247E34705F883A558
S3150000224081813A853EC885471EC636C43ECAEF1010
S315000022506043EF10107DA246B243C24702C2314727
S31500002260BDB5D24536CAA1B7368325BF52471384BA
S3150000227017003AC249B4224759BB52471384170084
S3150000228032833AC28DBC36CAC5B1011113030101AE
S3150000229032C81A8606C636CA3ACC3ECE1AC0193C91
S315000022A0B240056182801301C1FD130301012EC8EE
S315000022B0AA85156532CA130585B81A8606C636CCB0
S315000022C03ACE3ED01AC0FD32B2401301410282809E
S315000022D079713ED685679387C779130301023EC697
S315000022E085672AC032D09387E77B28001A8606CEF8
S315000022F03EC836D23AD40AC41AC26D3A82472380FF
S315000023000700F2404561828029C583460500AE87F5
S3150000231019A06387E60203C7070085077DFB91CEF8
S315000023202A86AE8719A0630FD70003C70700850763
S315000023307DFB834616000506EDF623A2018A828000
S315000023400505E1B79307160023A2F18A23000600CC
S31500002350828003A5418A55F901458280834705009D
S31500002360AA8691CB814785073387F6000347070086
S315000023703E8575FB82800145828093773500B9C71B
S315000023801387F5FFAA87B1C57D5621A07D17630C7B
S31500002390C700850793F63700A38F07FEE5FA0D46BB
S315000023A0BE86637DE6009306C7FFF19A9106BE9648
S315000023B023A007009107E39DF6FE0D8B19C73697FC
S315000023C08506A38F06FEE39DE6FE8280AA872E87FA
S315000023D0F9B77D57C9BF23A4A18A8280411126C2BD
S315000023E083A4018B06C622C4635590043D649307FB
S315000023F0849726863EC019A003A6018B03A7418BAE
S315000024009567B3059040138587844107AE8763546B
S315000024109600B307C040BA9713D7F7417183BA97AE
S31500002420BD8B998F02478A07FD14BA979043A53D45
S31500002430E1F4B24022449244410182808347050080
S315000024406388070E95662A862A879386D68C29A0E6
S31500002450834707006381070EB69783C70700050702
S31500002460A18BFDF783A7018B311106C822C626C4AE
S315000024703EC0B306F040634EF00A03A4418B3D67AD
S315000024809304879793070401B69793D6F741F18291
S31500002490B697BD8B958F8A07A6978C43328532C235
S315000024A0812151C112463285553D93172400A697C6
S315000024B0930615009305400803A30700124663F62A
S315000024C0D5002302060893065008B2851A8536C23F
S315000024D03D2383A5C18A9246230205081306B03719
S315000024E0AE96634BD6049385040423A6D18AB6958B
S315000024F005049357F44113D6C70132949377F40039
S31500002500918F139627003387D4002696824423AAF8
S31500002510F18A0CC223000704BD4763D39700BD446C
S31500002520850423A8918AC2403244A2445101828084
S315000025308280FD5699B7828023A6018A938504047A
S3150000254081467DB71301C1FD22CE06D026CC2A8452
S3150000255003450500050419C50504EFF04FE00345E2
S31500002560F4FF7DF983A7418B83A6C18A3D671306D5
S3150000257087978A0713070604B297369798C3BD67ED
S31500002580938487DB95679387578532C22300064479
S3150000259002C63EC422446D450504EFF04FDC0345F8
S315000025A0F4FF7DF9BD67938787DB63FB97002145C1
S315000025B0EFF0EFDABD67FD14938787DBE399F4FE4E
S315000025C083A7818A91C38297EFF04FECAA8793F78E
S315000025D0F70F1375F50F6D473EC0634DA70019CD74
S315000025E0636EA7001567931725001307C785BA976B
S315000025F09C4382879307F0076301F51A95679387D3
S31500002600D78CAA9783C7070093F7770999CF83C614
S31500002610040013841400639D061E8247A3800400F1
S315000026202380F400EFF0AFD3A2840247A947630BDF
S31500002630F700BD67938787DBB387F440130710085D
S31500002640E350F7F8BD67138587DBCD3B82507244B4
S31500002650BD67E244138587DB13014102828085044E
S31500002660EFF0EFCF03C504007DF9C1B713074004AF
S31500002670E39DE7FABD67938787DBE3F897FA214581
S31500002680EFF0EFCDFD1455B703C5040059DD850401
S31500002690EFF0EFCC59BF83A7818A91C38297EFF001
S315000026A0EFDE1377F50F3AC09307F0046306F700E1
S315000026B09307B005E31BF7F683A7818A91C3829738
S315000026C0EFF0CFDC9376F50F9377F50F1307300411
S315000026D036C0E38BE7FAE34BF7F813071004638E73
S315000026E0E71613072004E392E7F4BD67938787DBB9
S315000026F063FB97002145EFF08FC6BD67FD149387F6
S3150000270087DBE399F4FE03A4418BB2476380071C81
S315000027103247634307007D5783A7018B05073AC6F7
S31500002720B307F04063D3E700BA8713070401BA97EB
S3150000273013D7F7417183BA97BD8B998F12478A07D2
S31500002740BA978C43BD67138587DB552C924703C523
S315000027500744BD67938487DBE30E05E28504EFF04B
S315000027600FC003C504007DF935B5BD67938787DBC8
S31500002770E3FD97EA2145EFF08FBEBD67FD14938711
S3150000278087DBE399F4FE0247A947E31BF7E25DBD49
S315000027902945EFF0CFBC993149BDBD67938787DBEB
S315000027A0E3F597E883C7F4FF1387F4FF3ACA63910A
S315000027B00710238F04FE21451384E4FFD244EFF073
S315000027C00FBA034504008147630005103E8422C802
S315000027D0EFF0EFB80504338784000345F7FF65F98A
S315000027E0A2874244A24422C86D452684BE840504BD
S315000027F0EFF0EFB60345F4FF7DF9424481C8FD547E
S315000028007D142145EFF0AFB5E31C94FED24431BDF3
S31500002810AA87268719A0834607002300F700B687F4
S315000028200507F5FA23000700EFF06FB303C51400A0
S31500002830890419C58504EFF08FB203C5F4FF7DF94D
S315000028402285EFF0BFB1AA84E30005DEFD14214521
S31500002850EFF0EFB0E5FCA284C9BBBD67938787DBC9
S3150000286063FB97002145EFF08FAFBD67FD1493879B
S3150000287087DBE399F4FE03A4418BB24791EB124741
S3150000288093172400BA978843BD67938587DB852A0B
S3150000289083A7018BB2464104B307F04033A7D700A4
S315000028A03387E6403AC663D3E700BA87A29749B5AD
S315000028B0A6853A853A84A1222145EFF04FAA034521
S315000028C004008147E31405F07D5429BF124793178E
S315000028D02400BA978843BD67938587DB0D2225BD03
S315000028E03367B500FD530D8B79E7B7877F7F9387F5
S315000028F0F7F710419441B372F6003363F600BE92C7
S31500002900B3E262006397720C6318D6065041D44155
S31500002910B372F6003363F600BE92B3E262006398C8
S31500002920720A631BD60410459445B372F6003363EE
S31500002930F600BE92B3E262006391720A631ED6028B
S315000029405045D445B372F6003363F600BE92B3E247
S315000029506200639A72086311D60210499449B372F1
S31500002960F6003363F600BE92B3E262006393720828
S315000029705105D105E30FD6F6131706019397060105
S31500002980631CF7001357060193D706013305F7407A
S315000029909375F50F91E982804183C1833305F74032
S315000029A09375F50F91E182801377F70F93F7F70F81
S315000029B03305F74082800346050083C605000505FA
S315000029C085056313D60065FA3305D6408280110566
S315000029D09105E312D6FE014582802105A105E31C7F
S315000029E0D6FC014582803105B105E316D6FC0145CA
S315000029F082804105C105E310D6FC01458280B3679C
S31500002A00B5008D8BB1EF9841B7867F7F9386F6F739
S31500002A10B377D700B697D98FD58F7D56639BC704FA
S31500002A202A867D5318C2D84191051106B377D7007F
S31500002A30B697D98FD58FE38767FE83C7050003C78F
S31500002A40150083C625002300F60099C7A300E600FB
S31500002A5001C72301D60091E28280A301060082808D
S31500002A60AA8703C7050085078505A38FE7FE75FBC3
S31500002A7082802A86D9B72111156322CA26C82AC69A
S31500002A8032C02E871303D38C834707003A85050788
S31500002A903306F30003460600218A7DF61306D002AC
S31500002AA0638CC70C1306B002638DC70402C4A5C2AB
S31500002AB04146638AC60C7D56B353D602B684337636
S31500002AC0D60232C201430145A5426544138607FD7D
S31500002AD063F8C2001386F7FB636AC404138697FC87
S31500002AE0635ED604634203047D5363E8A300630771
S31500002AF07506330595020543329505078347F7FFAB
S31500002B00F1B702C48347070013072500D5F29306E1
S31500002B1000036381D70A9546B7A3991936C29383F2
S31500002B209399A944A94679BF7D53C1BF1386F7F986
S31500002B306366C400138697FAE346D6FA6344030233
S31500002B40A24799C33305A040824789C7631303028E
S31500002B5082478CC35244C244610182809247E3CECD
S31500002B60C7F841BFB246930720027D559CC28247F3
S31500002B70F5D39305F7FFE9BF8347070005473AC436
S31500002B80130725002DB713060003639CC7040346ED
S31500002B900700130580051376F60D631DA602BD46D4
S31500002BA0B70300108347170036C20907FD13C14457
S31500002BB0C14609BF834607001306800593F6F60D46
S31500002BC0E38FC6FC9D46B703002036C2FD13A14421
S31500002BD0A146CDBDFD533D46B3D3D302C14432C257
S31500002BE0D5B53D46B703001032C2FD13C144D9BD69
S31500002BF059B5AA8703A58184B2862E86BE85A5BD52
S31500002C00AA8703A58184B2862E86BE85ADB5B70296
S31500002C101000FD123111B3F7B20013D74501B3F21C
S31500002C20D20022C626C413D4F5019374F77F93D538
S31500002C3046011357D5018E07D98F93F5F57F1357A4
S31500002C40D60113D3F6018E0206C80E053367570068
S31500002C500E06B386B440631764226350D00E9DE51A
S31500002C60B365C700638E05209385F6FF89E92A962A
S31500002C703335A600BA97AA9732858544B1A81303BF
S31500002C80F07F639D66009304F07F45A29305F07F75
S31500002C90638DB418B70580004D8FB6859306800303
S31500002CA063C9B608FD4663C0B606130300023303C4
S31500002CB0B340B3166700B352B60033166600B3E6E8
S31500002CC056003336C000558E3357B7002A963E97C6
S31500002CD0B337A600BA973285139787006357071450
S31500002CE085041307F07F638BE448B70680FFFD1663
S31500002CF0FD8E1356150005899397F601518D5D8D4E
S31500002D0093D716001DA2938605FE93020002B356C2
S31500002D10D70001436388550013030004B305B3408D
S31500002D203313B7003366C3003336C000558E0147F0
S31500002D3071BF598E3336C000DDBFC5CE3383954093
S31500002D408DE4B3E6A700638206429306F3FF99E695
S31500002D503295BA973336C500B29705B79302F07F1E
S31500002D60631D5300BA87328539BF9306F07FE38B24
S31500002D70D5FEB7068000D58F9A8613038003634677
S31500002D80D3067D43634CD30293020002B382D24042
S31500002D90B353D5003393570033155500336373008F
S31500002DA03335A0003365A300B3D6D7003295B38779
S31500002DB0E6003336C500B297AE8439BF138306FEEC
S31500002DC09303000233D3670081426388760093023F
S31500002DD00004B386D240B392D70033E5A200333560
S31500002DE0A0003365A3008146D1B75D8D3335A000C1
S31500002DF0DDBF9386140093F5E67FBDE1B3E6A70039
S31500002E00A9E463880636B366C70085C22A96BA97D0
S31500002E103335A600AA9713978700328563570700B4
S31500002E20370780FF7D17F98F85441377750063098F
S31500002E3007341377F50091466304D73493064500AB
S31500002E4033B5A600AA97368525AE89DE518FE30CE9
S31500002E5007E20144B707400001459304F07F0DA641
S31500002E609305F07F638AB6302A963335A600BA9763
S31500002E70B385A7001395F5010582518D93D71500EB
S31500002E80B68465B76354D00CBDEDB365C700EDD904
S31500002E909385F6FF91E93306C5403335C500998F12
S31500002EA0898F32858544B1A01303F07FE38D66DCFC
S31500002EB09306800363C8B608FD4663CFB6041303C2
S31500002EC000023303B340B3166700B352B60033169D
S31500002ED06600B3E656003336C000558E3357B7004A
S31500002EE03306C5403387E740B337C500B307F7401D
S31500002EF0328513978700E35A07F2B7058000FD1560
S31500002F00FD8DAA825DA29305F07FE380B4F2B7053A
S31500002F1080004D8FB68569BF938605FE9302000239
S31500002F20B356D70001436388550013030004B30565
S31500002F30B3403313B7003366C3003336C000558E33
S31500002F40014779BF598E3336C000DDBFF9C2B3825F
S31500002F50954095E8B3E6A700638206289386F2FFBC
S31500002F6091EA3305A640B307F7403336A600918FA2
S31500002F701A840DBF9303F07F639F7200BA87328570
S31500002F809304F07F75A09306F07FE389D5FEB7061C
S31500002F908000D58F96869302800363C8D206FD42D1
S31500002FA063CED20293030002B383D3403354D500D9
S31500002FB0B392770033157500B3E282003335A00073
S31500002FC033E5A200B3D6D7003305A640B307D740F2
S31500002FD03336A600918FAE841A8421BF938206FEF3
S31500002FE013040002B3D2570081436388860093031B
S31500002FF00004B386D340B393D70033E5A30033353B
S31500003000A00033E5A2008146C1B75D8D3335A0002F
S31500003010DDBF9386140093F6E67FA5E6B3E5A70029
S31500003020B366C700A9E499E5638E061ABA873285A6
S315000030301A84E5BBE38B06DEB305C540B332B500A3
S31500003040B386E740B38656409392860063DA020061
S315000030503305A640B307F7403336A600918FC9BFA4
S3150000306033E5D50063040518B6872E857DBB99E543
S3150000307063800618BA8732851A8431B1E38506C0A3
S31500003080C9BBB302C540B3365500B385E740958D3D
S315000030909396850063DC0606B302A640B307F740A5
S315000030A033365600B385C7401A84BDC52E8516C271
S315000030B02EC0EF10804D82459242130785FFFD47D3
S315000030C063C6E70693070002998FB395E500B3D769
S315000030D0F200B3E6B7003395E20063429708058F26
S315000030E0930717007D466349F604130700021D8FF8
S315000030F0B355F5003396E6003315E5004D8E3335AE
S31500003100A000518DB3D7F600814405B333E5B20074
S3150000311049FD81478144C9A816852EC216C0EF1005
S31500003120C046924582421305050241BF130585FD3F
S31500003130B396A200014555B705179305000233D78C
S31500003140E60001466387B700130600041D8E33961A
S31500003150C600518D3335A000598D814775B7B70725
S3150000316080FFFD17998CF58FC9B1BA8732859A848D
S315000031706DB9BA87328555B99304F07F8147014509
S3150000318013978700635B070085041307F07F638648
S31500003190E406370780FF7D17F98F1397D7010D8156
S315000031A0598D1307F07F8D836399E4005D8D814708
S315000031B009C5B70708000145014413974401B7063E
S315000031C0F07FB207758FB1837E04D98FC24033E793
S315000031D087003244A244BA8551018280BA8732857B
S315000031E09684B9B581470145014459BF8147EDBF72
S315000031F001450144B70740008DB18147014571BFC4
S31500003200130181FD9397C50013D7F50126CE93D4FC
S31500003210C70093D7450122D03AC406D21397570167
S315000032202A8449CB13F3F77F9307F07F6302F30EEB
S31500003230139734009357D501D98F37078000B3E42D
S31500003240E70093153500130313C0014413D7460155
S315000032509397C600FD8236C693165701B183137540
S31500003260F77FE1CA1307F07F630EE5121357D60105
S315000032708E07D98F37078000D98F9316360013052E
S3150000328015C001472246B2423346560032C03306C5
S31500003290A30032C8050632C213162400598E7D16C5
S315000032A039456362C51215650A061305059D2A96FA
S315000032B010420286B3E5A400A5C536C232C085CC4D
S315000032C02685EF10802C02469246130755FFF147DC
S315000032D063CAE702F547930585FF998F3393B400D8
S315000032E0B357F400B3E46700B315B4001303D0C0BA
S315000032F03303A34099BFEF104029924602461305B7
S315000033000502E1B7930785FDB314F4008145F9BFC3
S31500003310B3E5A40091C9AA851303F07F0D443DB718
S315000033208144014305441DB781441303F07F0944DA
S3150000333031BFB3E6C700BDCEB1C33E8532CA2EC883
S315000033401AC23EC0EF10602482471243C24552465D
S31500003350930355FF7147634177047547930685FFCD
S3150000336033077740B397D7003357E600D98FB316A4
S31500003370D6001307D0C03305A74021B732853ECA11
S315000033802EC81AC232C0EF104020D247C24512439F
S315000033900246130505026DBF930785FDB317F600B8
S315000033A08146C1BFB3E6C70091CAB2861305F07F56
S315000033B00D47C9BD814701450547E9B58147130555
S315000033C0F07F0947C1B513D5050113D406013306AD
S315000033D0850241677D17F98DF98EB303D50232C494
S315000033E03306B4023383D5021E96B2821356030106
S315000033F0169663777600B3038502C1629E9216C461
S3150000340093520601798E3373E30042061A9632CA46
S3150000341013D60701F98F3387F5023303F502935369
S315000034200701B305B6029A959E953305C50263F466
S31500003430650041631A9513D305011A952AC641659D
S315000034401303F5FFB3F5650033776700C205BA9538
S315000034503387B20033F3640093D204013ACCB30449
S31500003460640233876602B386D202B3035402B6946B
S3150000347013540701A29463F3D400AA9393D60401CC
S31500003480B693C1661385F6FFE98C698F33856702AB
S31500003490C204BA94B387F20233036602B302560239
S315000034A03E931356050132936373F300B692A24717
S315000034B06247B2463384E70041677D17B377E3007E
S315000034C0C207798D3E95B247B335B40026943E9532
S315000034D03306B500B3077600B334940033879700FC
S315000034E03335D500B335B6005246B3B37700B3349F
S315000034F097004D8D13530301931694001A95B3E369
S3150000350093001E95D18EAA92B336D0005D80A60296
S3150000351093577701C18E2607D98E13977200B3E7AA
S31500003520F2006359070A13D71600858AD98E1397B6
S31500003530F701D98E858312479305F73F635FB0087D
S3150000354013F7760001CF13F7F60011466308C7009C
S3150000355013874600B336D700B697BA861397770017
S3150000356063590700370700FF7D17F98F1247930548
S3150000357007401307E07F634EB70E1397D7018D827E
S31500003580D98E8D8313974501B207B705F07F6D8FEE
S31500003590B183D98F0247925002547E0733E6E70083
S315000035A0F2443685B285130181028280A2473EC06D
S315000035B0A687AE8622870946630DC70A0D466303B2
S315000035C0C70A0546E319C7F681478146B5A03246C4
S315000035D032C0D5B742473AC2B9BF05460D8E13076A
S315000035E08003E343C7FE7D47634AC704124733D5CA
S315000035F0C6009305E7413397B700B396B600498FE7
S31500003600B336D000D98EB3D7C70013F7760001CFF3
S3150000361013F7F60011466308C70013874600B33652
S31500003620D700B697BA86139787006349070413979E
S31500003630D7018D82D98E8D838145A9B705570D8F08
S315000036401305000233D7E70081456307A60012463B
S315000036501306E643B395C700CD8EB336D000D98E98
S31500003660814765B7B707080081469305F07F02C01A
S3150000367011BF814781469305F07F29B7814781466F
S31500003680854509B7411113577501B7068000FD1628
S3150000369026C29374F70F13D77501B3F7A60022C499
S315000036A0ED8E1377F70F06C61354F501FD818E07CD
S315000036B08E063386E4406313B412635BC00621E3CF
S315000036C0638B06267D160DE6B697268793965700DA
S315000036D063DA060C05079306F00F6304D726B706D0
S315000036E0007E13F61700FD168583F58FD18F5DA832
S315000036F01307F00F639CE4001307F00F65A0130790
S31500003700F00FE38BE4FE37070004D98EED4505473D
S3150000371063CEC50013070002B3D5C6003306C74003
S31500003720B396C600B336D00033E7D500BA9771BF5B
S3150000373021CAB305974081EC89CBFD1599E1B6976F
S3150000374071B71306F00F631BC700B687A1A813064F
S31500003750F00FE30CC7FE37060004D18F6D45054612
S31500003760634DB500130600020D8E33D5B700B3972F
S31500003770C700B337F0003366F500B307D600B9B714
S31500003780138614001377E60F31E385E8DDDF99CA67
S31500003790B6979396570063D70600370700FC7D1748
S315000037A0F98F054793F67700638E061893F6F700B0
S315000037B011466389C618910771A2638007188DDECA
S315000037C00144B70700021307F00FADAA1307F00F65
S315000037D06307E616B69785833287E9B76355C00651
S315000037E029EB2687E1D27D1601EE958F9396570039
S315000037F0E3DA06FA370600047D167D8EBA84FDA04C
S315000038009305F00F1307F00FE38EB4F8ED45054767
S3150000381063CEC50013070002B3D5C6003306C74002
S31500003820B396C600B336D00033E7D500998F268706
S3150000383075BF9305F00F1307F00FE385B4F637074E
S315000038400004D98EE1B739CA3305974099EC99CB74
S315000038507D1509E5B387F6402E8449BF1306F00FA0
S31500003860631CC700B6872E8435BF1306F00FE30B23
S31500003870C7FE37060004D18F6D430546634DA3008E
S3150000388013060002098E33D3A700B397C700B337D8
S31500003890F0003366F300B387C6407DBF138714007C
S315000038A01377E70F1DEB9DE089E7CDFE81470144C5
S315000038B051A8E38906EE3386D74013155600B38721
S315000038C0F640E34205FA7DD2B287E9BDE39907EEF9
S315000038D0E38806EEB6872E8405B53386D7401317E0
S315000038E05600635F07023386F6402E84328532C067
S315000038F0EF00B04902461307B5FF3316E6006345ED
S315000039009702058F050793060002B357E600338733
S31500003910E6403316E6003336C000D18F014759B56D
S3150000392071F68147014761B7B70700FCFD1733877A
S31500003930E440F18F85BD2687B5B5B68775BB1307FD
S31500003940F00F81479396570063DB06000507930641
S31500003950F00F630ED702B70600FCFD16F58F93062F
S31500003960F00F8D836316D70081C7B7074000014467
S315000039703705807F5E07B240698FA6071315F401ED
S315000039802244A583D98F92445D8D4101828081476F
S31500003990F9B71111135675019357F50126C89312FD
S315000039A0950006CC22CA1376F60F3EC093D4920039
S315000039B025C69307F00F6300F60893923400B70705
S315000039C00004B3E4F200130616F8014713D5750197
S315000039D0139495001375F50F2580FD8135C5930762
S315000039E0F00F6307F508B70700040E045D8C130596
S315000039F015F881478246098E394533C3B6009316BA
S31500003A002700DD8EFD16636ED50615658A0613053D
S31500003A10C5A0AA96944282868DC426852EC2EF0042
S31500003A20D0369307B5FF1306A0F89245B394F40079
S31500003A30098E014761BF1306F00F0947C1D80D472C
S31500003A4071B70146054759B715C8228532C63AC42B
S31500003A502EC2EF0090339307B5FF3314F40093079B
S31500003A60A0F83385A740924522473246814759B789
S31500003A701305F00F89473DDC8D47ADBF01458547EE
S31500003A8095BF9315540063F9840C7D16814713D5B1
S31500003A90050133D4A40241677D176D8FC183B3F648
S31500003AA0A402B3038702C206DD8EA28763FC7600FA
S31500003AB0AE969307F4FF63E7B60063F576009307C7
S31500003AC0E4FFAE96B3867640B3D3A602B3F6A6025B
S31500003AD0B3027702139706019E86637C57002E97E2
S31500003AE09386F3FF6367B700637557009386E3FF1A
S31500003AF02E971394070133075740558C3337E00050
S31500003B00598C1305F6076354A0089377740099C778
S31500003B109377F40011476383E70011049317440079
S31500003B2063D80700B70700F8FD177D8C1305060854
S31500003B309307E00F0D8063C1A7045E05B707807F7A
S31500003B4026047D8D2580498C1315F301E240418DB5
S31500003B505244C244710182809397F401858005BF67
S31500003B6002432684BA870D476382E70605476385C5
S31500003B70E7060947E397E7F801441305F00F75BF19
S31500003B802E83D5B73704400001438D47E9BF8547EB
S31500003B90898F6D476342F7041306E609B357F400AD
S31500003BA03314C400333480005D8C9377740099C756
S31500003BB09377F40011476383E700110493175400C9
S31500003BC00D8063DC07000144054585BF37044000CE
S31500003BD01305F00F014395B701440145B9BF93564C
S31500003BE07501B7078000FD1713D7750193F6F60F19
S31500003BF01303F00F33F6A7001377F70FED8F7D81D0
S31500003C00FD816395660039C279558280631367002A
S31500003C10E5FF9DEE11E38DCB01CA6314B500635930
S31500003C20D7000DC17D5582807D5591C52E85828038
S31500003C3063D4E60065D98280E3E5C7FEE36CF6FE51
S31500003C40014582800545828065DEE1BFE302D7FC3F
S31500003C5069F7E1DBD9B793567501B7078000FD1701
S31500003C6013D7750193F6F60F1303F00F33F6A7007B
S31500003C701377F70FED8F7D81FD816395660039C25D
S31500003C800945828063136700E5FF9DEE11E38DCB46
S31500003C9001CA6314B5006359D7000DC17D558280F2
S31500003CA07D5591C52E85828063D4E60065D98280D4
S31500003CB0E3E5C7FEE36CF6FE01458280054582809A
S31500003CC065DEE1BFE302D7FC69F7E1DBD9B7111185
S31500003CD09317950026C89356750193D4970093576A
S31500003CE0F50106CC22CA93F6F60F3EC0A5CA130705
S31500003CF0F00F6384E6089397340037070004B3E4B3
S31500003D00E700938616F8014613D5750113949500BE
S31500003D101375F50F2580FD8135C91307F00F630B69
S31500003D20E5080E0437070004598C130515F80143FE
S31500003D30824793122600B3E262003695FD12B9431C
S31500003D4033C7B7009306150063EF530615651305D1
S31500003D5085A48A02AA9203A5020002858DC426853F
S31500003D602EC2EF0090021307B5FF9306A0F8924506
S31500003D70B394E400898E014641BF9306F00F0946CD
S31500003D80C1D40D4651B781460546BDBF15C822852B
S31500003D9036C632C42EC2EF00407F1307B5FF331478
S31500003DA0E4001307A0F892452246B2463305A74021
S31500003DB00143BDBF1305F00F09433DD80D438DBF29
S31500003DC001450543B5B7C1621383F2FF935504015C
S31500003DD013D60401B3F7640033746400B303F4022A
S31500003DE033048602B387F5023306B602A29793D54B
S31500003DF00301AE9763F38700169633F46700420417
S31500003E0033F363002293C18313146300B2973334F0
S31500003E1080009A071353A301336364001396470087
S31500003E2033E46700635706069357140005885D8CD4
S31500003E301385F6076351A0069377740099C79377A5
S31500003E40F40011466383C70011049317440063D836
S31500003E500700B70700F8FD177D8C13850608930742
S31500003E60E00F0D8063DDA70601441305F00F85A85A
S31500003E700247268432838947E308F3FE8D47630BA6
S31500003E80F3048547E316F3FA0144014589A82E8712
S31500003E90DDB7AA8671BF8547898F6D46E346F6FE74
S31500003EA09386E609B357F4003314D4003334800004
S31500003EB05D8C9377740099C79377F400914663837A
S31500003EC0D7001104931754000D80E3D007FC01447A
S31500003ED0054531A0370440001305F00F01475E0584
S31500003EE0B707807F26047D8D2580498C1315F70141
S31500003EF0E240418D5244C24471018280B70680007F
S31500003F004111FD161356750113D37501B3F7A600BB
S31500003F1022C4ED8E26C21376F60F1354F5011373E1
S31500003F20F30F06C61305F00FB2848E071A87FD81BC
S31500003F308E066313A30099E293C515003305664008
S31500003F4063908512635CA00663110304638B0626E7
S31500003F507D150DE5B69732879396570063DC060C00
S31500003F6005079306F00F6304D726B706007E13F6FF
S31500003F701700FD168583F58FD18F6DA81307F00FF7
S31500003F80631CE6001307F00F75A01307F00FE30B91
S31500003F90E6FE37070004D98EED45054763CEA5003A
S31500003FA013070002B3D5A6003305A740B396A600B3
S31500003FB0B336D00033E7D500BA9771BF29C9B30528
S31500003FC0C34009EE63810720FD1599E1B69769B7ED
S31500003FD01306F00F631BC300B6876DB71306F00F09
S31500003FE0E30CC3FE37060004D18F6D450546634DCD
S31500003FF0B500130600020D8E33D5B700B397C70080
S31500004000B337F0003366F500B307D600B1B79305B2
S31500004010160013F7E50F0DEF0DEA6386071A99CA26
S31500004020B6979396570063D70600370700FC7D17AF
S31500004030F98F054793F67700638C061893F6F70019
S3150000404011466387C618910761A2D9D785DE39A2C2
S315000040501307F00F638BE516B69785832E87D9BFB6
S315000040606356A006631A03043287E9D67D1501ED6F
S31500004070958F93965700E3DF06FA370600047D1600
S315000040807D8EBA84DDA89305F00F1307F00FE303C6
S31500004090B6FAED45054763CEA50013070002B3D572
S315000040A0A6003305A740B396A600B336D00033E783
S315000040B0D500998F328775BF9305F00F1307F00F60
S315000040C0E30AB6F637070004D98EE1B739C93305D6
S315000040D0C34019EEB9CF7D1509E5B387F6402E84A6
S315000040E049BF1306F00F631CC300B6872E8459BD63
S315000040F01306F00FE30BC3FE37060004D18F6D43A2
S315000041000546634DA30013060002098E33D3A700AC
S31500004110B397C700B337F0003366F300B387C640E2
S315000041207DBF130716001377E70F1DEF0DE681E736
S3150000413085C2B68719A8E38F06EE3386D7401315D6
S31500004140560063560500B387F6402E84E5B571E642
S3150000415081470144B5A8E39B07EEC1FA0144B707BE
S3150000416000021307F00FADA03386D7401317560091
S31500004170635E07023386F6402E84328532C03121D3
S3150000418002461307B5FF3316E60063459702058F0F
S31500004190050793060002B357E6003387E640331659
S315000041A0E6003336C000D18F014769B579F68147FD
S315000041B0014745B7B70700FCFD173387E440F18F89
S315000041C095BD328785BDB687B5B51307F00F814714
S315000041D09396570063DB060005079306F00F63000E
S315000041E0D704B70600FCFD16F58F9306F00F8D83F6
S315000041F06316D70081C7B707400001443705807FA3
S315000042005E07B240698FA6071315F4012244A58301
S31500004210D98F92445D8D41018280B28721BD81474D
S31500004220E9B737068000135775019307F6FF137732
S31500004230F70F9305E007E98F9356F50163F1E5045F
S315000042409305D00963F8E500370500801345F5FFAF
S315000042503695828033E5C7009307500963DAE70095
S315000042601307A7F63315E50081CE3305A0408280FB
S31500004270930760093387E7403355E500F5B70145F5
S315000042808280511106C422C226C045C59357F54106
S3150000429033C4A7001D8C9354F5012285FD24AA87FB
S315000042A01305E0091D8D130760096344A702214722
S315000042B06355F700E1173314F40026045E052580E4
S315000042C0498C1395F401A240418D12448244310178
S315000042D0828013079009635DA70095469D8E13871C
S315000042E0B701B356D4003314E40033348000558C40
S315000042F015476356F7001387B7FF3314E4003707F3
S3150000430000FC7D1793767400618F91C63D889146B7
S315000043106303D40011079316570063D90600B70646
S3150000432000FCFD161305F009758F1D8D135437001B
S3150000433069B78144014451B7511122C206C42A8487
S31500004340814719CD99249307E009898F13076009DE
S315000043506341F70221476355A70061153314A40092
S315000043602604258013957701A240418D1244310120
S31500004370828013079009635DF7009306B501154720
S31500004380B316D400098FB336D0003354E400558CED
S3150000439015476356A7001307B5FF3314E400370724
S315000043A000FC7D1793767400618F91C63D88914617
S315000043B06303D40011079316570063D90600B707A5
S315000043C000FCFD177D8F9307F009898F1354370082
S315000043D041BF93577501511193F7F70F22C226C0BB
S315000043E0131495009354F5011385170006C413752D
S315000043F0E50F258005C513850738935734007604E5
S31500004400B2075205B183A240C98F22851244FE0429
S3150000441033E79700BA8582443101828095EB6DD0EF
S315000044202285A522A94763CFA700AD47898F130729
S315000044305501B357F4003314E400130790383305DD
S31500004440A7407DBF930755FFB317F4000144F5B7A6
S31500004450814719C493573400370708007604D98F6B
S315000044601305F07F71BF93D6450193F2F67F13973C
S31500004470C500938612009357970093F6E67F13576D
S31500004480D5015D8FFD8193173500D9C2138302C80C
S315000044909306E00F63CB660863436006A556634B3D
S315000044A0D30CB70680007946558F33066640FD4625
S315000044B063C3C602938622C833D6C700B397D70014
S315000044C0B337F0003317D700D98FD18F014313F7D5
S315000044D0770039CF55A0795533056540130300029F
S315000044E03355A700814663066600938622CAB31633
S315000044F0D700DD8EB336D000B367D500C1BF9316A3
S315000045006500B336D0000E07F583558FD98FC1B736
S31500004510D98F63950200B337F0004DBF1303F00F38
S3150000452081CB0E07B7070002D5B781471303F00FFB
S3150000453013975700635B070005031307F00F630427
S31500004540E304370700FC7D17F98F1307F00F8D83FF
S315000045506316E30081C7B707400081451315730151
S315000045603707807FA607798DA583C98F1395F50137
S315000045705D8D82808547014313F7F7009146E30975
S31500004580D7FA910775B78147C9B7C1676375F50251
S315000045909307F00FB3B7A7008E07156793060002BF
S315000045A09D8E3355F500930747A83E9503450500B4
S315000045B03385A640828037070001C147E36FE5FCDB
S309000045C0E147E1BF29
S315000045C4645F63616368655F666C75736828292038
S315000045D42532782025640A00253038783A200000F0
S315000045E4253038782000000025303278200000007D
S315000045F472766D6F6E206C6F616465642E2025344F
S315000046042E3166204D487A0A4E70203D2025640AD4
S315000046140000000072766D6F6E242000200A0000F0
S3150000462420777269746520696E632070617474659D
S31500004634726E20746F206D656D6F7279204020252F
S31500004644782025642077640A00000000666C757380
S31500004654682025640A000000636C65616E20256489
S315000046640A0000006F75743A20202538780A000085
S31500004674696E3A2020202538780A000066696C7431
S315000046843A202538780A0000626961733A20253891
S31500004694780A00007175616E743A202538780A002C
S315000046A46D6F6E69203A2025640A0000253878204B
S315000046B43A20253038780A002532643A2025352EEA
S315000046C432662025252025342E3266206D730A0095
S315000046D4202020202020202020202025342E326651
S315000046E4206D73202072756E3A25342E3266206D45
S315000046F47320787264793A25342E3266206D730AF3
S315000047040000000020202020642F647720207B6195
S315000047146464727D0A202020207720207B40616417
S3150000472464727D207B646174617D0A202020207080
S31500004734202020616464722D2D0A2020202062200E
S31500004744207072696E74206261736520616464729C
S315000047540A20202020662020636163686520666C39
S315000047647573680A202020206320206361636865CE
S3150000477420636C65616E0A202020206520207072FB
S31500004784696E7420656C61707365642074696D6507
S315000047940A20202020722020726573657420656CBF
S315000047A461707365640A00002A2A20657869742892
S315000047B4292074696D65723A2025640A0000000098
S315000047C4F81F0000F21C0000F21C0000F21C00009E
S315000047D4F21C0000F21C0000F21C0000F21C000097
S315000047E4F21C0000F21C0000F21C0000C81F0000AE
S315000047F4BE1F0000F21C0000C41E0000F21C0000D4
S31500004804F21C0000F21C0000F21C0000F21C000066
S31500004814F21C0000F21C0000F21C0000F21C000056
S31500004824F21C0000F21C0000F21C0000621E0000D4
S31500004834F21C0000421E0000F21C0000F21C0000E4
S31500004844C61D00002533643A2025730A00000000C3
S315000048541B5B304B00000000FC2500006A270000AB
S3150000486474260000FC250000FC25000064260000D8
S3150000487488260000FC2500009A2700002A2600004E
S3150000488444260000FC250000902700002A2600008C
S31500004894FC250000FC250000FC250000FC2500008A
S315000048A4FC250000FC250000FC250000FC2500007A
S315000048B4FC250000FC250000FC250000FC2500006A
S315000048C4FC25000096260000002020202020202021
S315000048D420202828282828202020202020202020A6
S315000048E420202020202020202088101010101010B6
S315000048F41010101010101010100404040404040402
S31500004904040404101010101010104141414141419B
S31500004914010101010101010101010101010101017D
S31500004924010101011010101010104242424242428D
S31500004934020202020202020202020202020202024D
S3150000494402020202101010102000000000000000F5
S31500004954000000000000000000000000000000004D
S31500004964000000000000000000000000000000003D
S31500004974000000000000000000000000000000002D
S31500004984000000000000000000000000000000001D
S31500004994000000000000000000000000000000000D
S315000049A400000000000000000000000000000000FD
S315000049B400000000000000000000000000000000ED
S315000049C4000000000000000000000000B6350000F2
S315000049D4B6350000CE350000B0350000B035000015
S315000049E464360000CE350000B035000064360000A1
S315000049F4B0350000CE350000AC350000AC35000003
S31500004A04AC35000064360000783B0000D83B00005B
S31500004A14803B0000D83B0000CC3B0000D83B0000A4
S31500004A24803B0000783B0000783B0000CC3B000054
S31500004A34803B0000603B0000603B0000603B0000E0
S31500004A44843B0000763E0000763E00008E3E000069
S31500004A54723E0000723E0000D43E00008E3E00000E
S31500004A64723E0000D43E0000723E00008E3E0000FE
S31500004A74703E0000703E0000703E0000D43E000010
S31500004A8400010202030303030404040404040404EB
S31500004A9405050505050505050505050505050505BC
S31500004AA4060606060606060606060606060606069C
S31500004AB4060606060606060606060606060606068C
S31500004AC4070707070707070707070707070707076C
S31500004AD4070707070707070707070707070707075C
S31500004AE4070707070707070707070707070707074C
S31500004AF4070707070707070707070707070707073C
S31500004B04080808080808080808080808080808081B
S31500004B14080808080808080808080808080808080B
S31500004B2408080808080808080808080808080808FB
S31500004B3408080808080808080808080808080808EB
S31500004B4408080808080808080808080808080808DB
S31500004B5408080808080808080808080808080808CB
S31500004B6408080808080808080808080808080808BB
S31500004B7408080808080808080808080808080808AB
S31500004B880100000032170000721700000000000044
S31500004B9800000000844E0000EC4E0000544F000058
S31500004BA800000000000000000000000000000000F7
S31500004BB800000000000000000000000000000000E7
S31500004BC800000000000000000000000000000000D7
S31500004BD800000000000000000000000000000000C7
S31500004BE800000000000000000000000000000000B7
S31500004BF800000000000000000000000000000000A7
S31500004C080000000000000000000000000000000096
S31500004C180000000000000000000000000000000086
S31500004C280000000000000000000000000000000076
S31500004C380000000000000000010000000000000065
S31500004C480E33CDAB34126DE6ECDE05000B0000002A
S31500004C580000000000000000000000000000000046
S31500004C680000000000000000000000000000000036
S31500004C780000000000000000000000000000000026
S31500004C880000000000000000000000000000000016
S31500004FC00000000000001040000000A09999A93FD1
S31500004FD000007A440000E1470000003F6F12833A68
S31500004FE0BD3786350000C8420000803F0000403FC4
S31500004FF0A69BC43BCDCCCC3DCDCC4C3D0000004067
S31100005000984B000020BCBE4C984B0000F2
S70500000000FA
